{
	"contracts/Operations.sol": {
		"Operations": {
			"abi": [
				{
					"inputs": [
						{
							"internalType": "uint256",
							"name": "a",
							"type": "uint256"
						},
						{
							"internalType": "uint256",
							"name": "b",
							"type": "uint256"
						}
					],
					"name": "add",
					"outputs": [
						{
							"internalType": "uint256",
							"name": "",
							"type": "uint256"
						}
					],
					"stateMutability": "pure",
					"type": "function"
				},
				{
					"inputs": [
						{
							"internalType": "uint256",
							"name": "n",
							"type": "uint256"
						}
					],
					"name": "addAndCheckEvenOdd",
					"outputs": [
						{
							"internalType": "bool",
							"name": "",
							"type": "bool"
						}
					],
					"stateMutability": "pure",
					"type": "function"
				},
				{
					"inputs": [
						{
							"internalType": "uint256",
							"name": "n",
							"type": "uint256"
						}
					],
					"name": "addFibonacci",
					"outputs": [
						{
							"internalType": "uint256",
							"name": "",
							"type": "uint256"
						}
					],
					"stateMutability": "pure",
					"type": "function"
				},
				{
					"inputs": [
						{
							"internalType": "uint256[]",
							"name": "numbers",
							"type": "uint256[]"
						}
					],
					"name": "addNumbers",
					"outputs": [
						{
							"internalType": "uint256",
							"name": "",
							"type": "uint256"
						}
					],
					"stateMutability": "pure",
					"type": "function"
				},
				{
					"inputs": [
						{
							"internalType": "uint256[]",
							"name": "nums",
							"type": "uint256[]"
						}
					],
					"name": "divideNumbers",
					"outputs": [
						{
							"internalType": "uint256",
							"name": "",
							"type": "uint256"
						}
					],
					"stateMutability": "pure",
					"type": "function"
				},
				{
					"inputs": [
						{
							"internalType": "uint256",
							"name": "n",
							"type": "uint256"
						}
					],
					"name": "fibonacci",
					"outputs": [
						{
							"internalType": "uint256[]",
							"name": "",
							"type": "uint256[]"
						}
					],
					"stateMutability": "pure",
					"type": "function"
				},
				{
					"inputs": [
						{
							"internalType": "uint256",
							"name": "num",
							"type": "uint256"
						}
					],
					"name": "isEven",
					"outputs": [
						{
							"internalType": "bool",
							"name": "",
							"type": "bool"
						}
					],
					"stateMutability": "pure",
					"type": "function"
				},
				{
					"inputs": [
						{
							"internalType": "uint256[]",
							"name": "numbers",
							"type": "uint256[]"
						}
					],
					"name": "multiply",
					"outputs": [
						{
							"internalType": "uint256",
							"name": "",
							"type": "uint256"
						}
					],
					"stateMutability": "pure",
					"type": "function"
				},
				{
					"inputs": [
						{
							"internalType": "uint256[]",
							"name": "nums",
							"type": "uint256[]"
						}
					],
					"name": "subtractNumbers",
					"outputs": [
						{
							"internalType": "uint256",
							"name": "",
							"type": "uint256"
						}
					],
					"stateMutability": "pure",
					"type": "function"
				}
			],
			"devdoc": {
				"kind": "dev",
				"methods": {},
				"version": 1
			},
			"evm": {
				"assembly": "    /* \"contracts/Operations.sol\":179:2633  contract Operations {... */\n  mstore(0x40, 0x80)\n  callvalue\n  dup1\n  iszero\n  tag_1\n  jumpi\n  0x00\n  dup1\n  revert\ntag_1:\n  pop\n  dataSize(sub_0)\n  dup1\n  dataOffset(sub_0)\n  0x00\n  codecopy\n  0x00\n  return\nstop\n\nsub_0: assembly {\n        /* \"contracts/Operations.sol\":179:2633  contract Operations {... */\n      mstore(0x40, 0x80)\n      callvalue\n      dup1\n      iszero\n      tag_1\n      jumpi\n      0x00\n      dup1\n      revert\n    tag_1:\n      pop\n      jumpi(tag_2, lt(calldatasize, 0x04))\n      shr(0xe0, calldataload(0x00))\n      dup1\n      0x771602f7\n      gt\n      tag_12\n      jumpi\n      dup1\n      0x771602f7\n      eq\n      tag_7\n      jumpi\n      dup1\n      0x7b271810\n      eq\n      tag_8\n      jumpi\n      dup1\n      0x9770cfc5\n      eq\n      tag_9\n      jumpi\n      dup1\n      0x9ef028b7\n      eq\n      tag_10\n      jumpi\n      dup1\n      0xb9a03868\n      eq\n      tag_11\n      jumpi\n      jump(tag_2)\n    tag_12:\n      dup1\n      0x239de9f4\n      eq\n      tag_3\n      jumpi\n      dup1\n      0x2a2e1320\n      eq\n      tag_4\n      jumpi\n      dup1\n      0x4effac52\n      eq\n      tag_5\n      jumpi\n      dup1\n      0x61047ff4\n      eq\n      tag_6\n      jumpi\n    tag_2:\n      0x00\n      dup1\n      revert\n        /* \"contracts/Operations.sol\":925:1153  function multiply(uint[] memory numbers) public pure returns (uint) {... */\n    tag_3:\n      tag_13\n      0x04\n      dup1\n      calldatasize\n      sub\n      dup2\n      add\n      swap1\n      tag_14\n      swap2\n      swap1\n      tag_15\n      jump\t// in\n    tag_14:\n      tag_16\n      jump\t// in\n    tag_13:\n      mload(0x40)\n      tag_17\n      swap2\n      swap1\n      tag_18\n      jump\t// in\n    tag_17:\n      mload(0x40)\n      dup1\n      swap2\n      sub\n      swap1\n      return\n        /* \"contracts/Operations.sol\":2318:2409  function isEven(uint num) public pure returns (bool) {... */\n    tag_4:\n      tag_19\n      0x04\n      dup1\n      calldatasize\n      sub\n      dup2\n      add\n      swap1\n      tag_20\n      swap2\n      swap1\n      tag_21\n      jump\t// in\n    tag_20:\n      tag_22\n      jump\t// in\n    tag_19:\n      mload(0x40)\n      tag_23\n      swap2\n      swap1\n      tag_24\n      jump\t// in\n    tag_23:\n      mload(0x40)\n      dup1\n      swap2\n      sub\n      swap1\n      return\n        /* \"contracts/Operations.sol\":628:869  function subtractNumbers(uint256[] memory nums) public pure returns (uint256) {... */\n    tag_5:\n      tag_25\n      0x04\n      dup1\n      calldatasize\n      sub\n      dup2\n      add\n      swap1\n      tag_26\n      swap2\n      swap1\n      tag_15\n      jump\t// in\n    tag_26:\n      tag_27\n      jump\t// in\n    tag_25:\n      mload(0x40)\n      tag_28\n      swap2\n      swap1\n      tag_18\n      jump\t// in\n    tag_28:\n      mload(0x40)\n      dup1\n      swap2\n      sub\n      swap1\n      return\n        /* \"contracts/Operations.sol\":1612:1983  function fibonacci(uint n) public pure returns (uint[] memory) {... */\n    tag_6:\n      tag_29\n      0x04\n      dup1\n      calldatasize\n      sub\n      dup2\n      add\n      swap1\n      tag_30\n      swap2\n      swap1\n      tag_21\n      jump\t// in\n    tag_30:\n      tag_31\n      jump\t// in\n    tag_29:\n      mload(0x40)\n      tag_32\n      swap2\n      swap1\n      tag_33\n      jump\t// in\n    tag_32:\n      mload(0x40)\n      dup1\n      swap2\n      sub\n      swap1\n      return\n        /* \"contracts/Operations.sol\":250:337  function add(uint a, uint b) public pure returns (uint) {... */\n    tag_7:\n      tag_34\n      0x04\n      dup1\n      calldatasize\n      sub\n      dup2\n      add\n      swap1\n      tag_35\n      swap2\n      swap1\n      tag_36\n      jump\t// in\n    tag_35:\n      tag_37\n      jump\t// in\n    tag_34:\n      mload(0x40)\n      tag_38\n      swap2\n      swap1\n      tag_18\n      jump\t// in\n    tag_38:\n      mload(0x40)\n      dup1\n      swap2\n      sub\n      swap1\n      return\n        /* \"contracts/Operations.sol\":1165:1534  function divideNumbers(uint256[] memory nums) public pure returns (uint256) {... */\n    tag_8:\n      tag_39\n      0x04\n      dup1\n      calldatasize\n      sub\n      dup2\n      add\n      swap1\n      tag_40\n      swap2\n      swap1\n      tag_15\n      jump\t// in\n    tag_40:\n      tag_41\n      jump\t// in\n    tag_39:\n      mload(0x40)\n      tag_42\n      swap2\n      swap1\n      tag_18\n      jump\t// in\n    tag_42:\n      mload(0x40)\n      dup1\n      swap2\n      sub\n      swap1\n      return\n        /* \"contracts/Operations.sol\":2054:2307  function addFibonacci(uint n) public pure returns (uint) {... */\n    tag_9:\n      tag_43\n      0x04\n      dup1\n      calldatasize\n      sub\n      dup2\n      add\n      swap1\n      tag_44\n      swap2\n      swap1\n      tag_21\n      jump\t// in\n    tag_44:\n      tag_45\n      jump\t// in\n    tag_43:\n      mload(0x40)\n      tag_46\n      swap2\n      swap1\n      tag_18\n      jump\t// in\n    tag_46:\n      mload(0x40)\n      dup1\n      swap2\n      sub\n      swap1\n      return\n        /* \"contracts/Operations.sol\":2493:2630  function addAndCheckEvenOdd(uint n) public pure returns (bool) {... */\n    tag_10:\n      tag_47\n      0x04\n      dup1\n      calldatasize\n      sub\n      dup2\n      add\n      swap1\n      tag_48\n      swap2\n      swap1\n      tag_21\n      jump\t// in\n    tag_48:\n      tag_49\n      jump\t// in\n    tag_47:\n      mload(0x40)\n      tag_50\n      swap2\n      swap1\n      tag_24\n      jump\t// in\n    tag_50:\n      mload(0x40)\n      dup1\n      swap2\n      sub\n      swap1\n      return\n        /* \"contracts/Operations.sol\":400:618  function addNumbers(uint[] memory numbers) public pure returns (uint) {... */\n    tag_11:\n      tag_51\n      0x04\n      dup1\n      calldatasize\n      sub\n      dup2\n      add\n      swap1\n      tag_52\n      swap2\n      swap1\n      tag_15\n      jump\t// in\n    tag_52:\n      tag_53\n      jump\t// in\n    tag_51:\n      mload(0x40)\n      tag_54\n      swap2\n      swap1\n      tag_18\n      jump\t// in\n    tag_54:\n      mload(0x40)\n      dup1\n      swap2\n      sub\n      swap1\n      return\n        /* \"contracts/Operations.sol\":925:1153  function multiply(uint[] memory numbers) public pure returns (uint) {... */\n    tag_16:\n        /* \"contracts/Operations.sol\":987:991  uint */\n      0x00\n        /* \"contracts/Operations.sol\":1004:1016  uint product */\n      dup1\n        /* \"contracts/Operations.sol\":1019:1020  1 */\n      0x01\n        /* \"contracts/Operations.sol\":1004:1020  uint product = 1 */\n      swap1\n      pop\n        /* \"contracts/Operations.sol\":1036:1042  uint i */\n      0x00\n        /* \"contracts/Operations.sol\":1031:1121  for (uint i = 0; i < numbers.length; i++) {... */\n    tag_56:\n        /* \"contracts/Operations.sol\":1052:1059  numbers */\n      dup4\n        /* \"contracts/Operations.sol\":1052:1066  numbers.length */\n      mload\n        /* \"contracts/Operations.sol\":1048:1049  i */\n      dup2\n        /* \"contracts/Operations.sol\":1048:1066  i < numbers.length */\n      lt\n        /* \"contracts/Operations.sol\":1031:1121  for (uint i = 0; i < numbers.length; i++) {... */\n      iszero\n      tag_57\n      jumpi\n        /* \"contracts/Operations.sol\":1099:1106  numbers */\n      dup4\n        /* \"contracts/Operations.sol\":1107:1108  i */\n      dup2\n        /* \"contracts/Operations.sol\":1099:1109  numbers[i] */\n      dup2\n      mload\n      dup2\n      lt\n      tag_59\n      jumpi\n      tag_60\n      tag_61\n      jump\t// in\n    tag_60:\n    tag_59:\n      0x20\n      mul\n      0x20\n      add\n      add\n      mload\n        /* \"contracts/Operations.sol\":1088:1109  product *= numbers[i] */\n      dup3\n      tag_62\n      swap2\n      swap1\n      tag_63\n      jump\t// in\n    tag_62:\n      swap2\n      pop\n        /* \"contracts/Operations.sol\":1068:1071  i++ */\n      dup1\n      dup1\n      tag_64\n      swap1\n      tag_65\n      jump\t// in\n    tag_64:\n      swap2\n      pop\n      pop\n        /* \"contracts/Operations.sol\":1031:1121  for (uint i = 0; i < numbers.length; i++) {... */\n      jump(tag_56)\n    tag_57:\n      pop\n        /* \"contracts/Operations.sol\":1138:1145  product */\n      dup1\n        /* \"contracts/Operations.sol\":1131:1145  return product */\n      swap2\n      pop\n      pop\n        /* \"contracts/Operations.sol\":925:1153  function multiply(uint[] memory numbers) public pure returns (uint) {... */\n      swap2\n      swap1\n      pop\n      jump\t// out\n        /* \"contracts/Operations.sol\":2318:2409  function isEven(uint num) public pure returns (bool) {... */\n    tag_22:\n        /* \"contracts/Operations.sol\":2365:2369  bool */\n      0x00\n        /* \"contracts/Operations.sol\":2400:2401  0 */\n      dup1\n        /* \"contracts/Operations.sol\":2395:2396  2 */\n      0x02\n        /* \"contracts/Operations.sol\":2389:2392  num */\n      dup4\n        /* \"contracts/Operations.sol\":2389:2396  num % 2 */\n      tag_67\n      swap2\n      swap1\n      tag_68\n      jump\t// in\n    tag_67:\n        /* \"contracts/Operations.sol\":2389:2401  num % 2 == 0 */\n      eq\n        /* \"contracts/Operations.sol\":2382:2401  return num % 2 == 0 */\n      swap1\n      pop\n        /* \"contracts/Operations.sol\":2318:2409  function isEven(uint num) public pure returns (bool) {... */\n      swap2\n      swap1\n      pop\n      jump\t// out\n        /* \"contracts/Operations.sol\":628:869  function subtractNumbers(uint256[] memory nums) public pure returns (uint256) {... */\n    tag_27:\n        /* \"contracts/Operations.sol\":697:704  uint256 */\n      0x00\n        /* \"contracts/Operations.sol\":717:731  uint256 result */\n      dup1\n        /* \"contracts/Operations.sol\":734:738  nums */\n      dup3\n        /* \"contracts/Operations.sol\":739:740  0 */\n      0x00\n        /* \"contracts/Operations.sol\":734:741  nums[0] */\n      dup2\n      mload\n      dup2\n      lt\n      tag_70\n      jumpi\n      tag_71\n      tag_61\n      jump\t// in\n    tag_71:\n    tag_70:\n      0x20\n      mul\n      0x20\n      add\n      add\n      mload\n        /* \"contracts/Operations.sol\":717:741  uint256 result = nums[0] */\n      swap1\n      pop\n        /* \"contracts/Operations.sol\":757:766  uint256 i */\n      0x00\n        /* \"contracts/Operations.sol\":769:770  1 */\n      0x01\n        /* \"contracts/Operations.sol\":757:770  uint256 i = 1 */\n      swap1\n      pop\n        /* \"contracts/Operations.sol\":752:838  for (uint256 i = 1; i < nums.length; i++) {... */\n    tag_72:\n        /* \"contracts/Operations.sol\":776:780  nums */\n      dup4\n        /* \"contracts/Operations.sol\":776:787  nums.length */\n      mload\n        /* \"contracts/Operations.sol\":772:773  i */\n      dup2\n        /* \"contracts/Operations.sol\":772:787  i < nums.length */\n      lt\n        /* \"contracts/Operations.sol\":752:838  for (uint256 i = 1; i < nums.length; i++) {... */\n      iszero\n      tag_73\n      jumpi\n        /* \"contracts/Operations.sol\":819:823  nums */\n      dup4\n        /* \"contracts/Operations.sol\":824:825  i */\n      dup2\n        /* \"contracts/Operations.sol\":819:826  nums[i] */\n      dup2\n      mload\n      dup2\n      lt\n      tag_75\n      jumpi\n      tag_76\n      tag_61\n      jump\t// in\n    tag_76:\n    tag_75:\n      0x20\n      mul\n      0x20\n      add\n      add\n      mload\n        /* \"contracts/Operations.sol\":809:826  result -= nums[i] */\n      dup3\n      tag_77\n      swap2\n      swap1\n      tag_78\n      jump\t// in\n    tag_77:\n      swap2\n      pop\n        /* \"contracts/Operations.sol\":789:792  i++ */\n      dup1\n      dup1\n      tag_79\n      swap1\n      tag_65\n      jump\t// in\n    tag_79:\n      swap2\n      pop\n      pop\n        /* \"contracts/Operations.sol\":752:838  for (uint256 i = 1; i < nums.length; i++) {... */\n      jump(tag_72)\n    tag_73:\n      pop\n        /* \"contracts/Operations.sol\":855:861  result */\n      dup1\n        /* \"contracts/Operations.sol\":848:861  return result */\n      swap2\n      pop\n      pop\n        /* \"contracts/Operations.sol\":628:869  function subtractNumbers(uint256[] memory nums) public pure returns (uint256) {... */\n      swap2\n      swap1\n      pop\n      jump\t// out\n        /* \"contracts/Operations.sol\":1612:1983  function fibonacci(uint n) public pure returns (uint[] memory) {... */\n    tag_31:\n        /* \"contracts/Operations.sol\":1660:1673  uint[] memory */\n      0x60\n        /* \"contracts/Operations.sol\":1686:1703  uint[] memory fib */\n      0x00\n        /* \"contracts/Operations.sol\":1717:1718  n */\n      dup3\n        /* \"contracts/Operations.sol\":1706:1719  new uint[](n) */\n      0xffffffffffffffff\n      dup2\n      gt\n      iszero\n      tag_81\n      jumpi\n      tag_82\n      tag_83\n      jump\t// in\n    tag_82:\n    tag_81:\n      mload(0x40)\n      swap1\n      dup1\n      dup3\n      mstore\n      dup1\n      0x20\n      mul\n      0x20\n      add\n      dup3\n      add\n      0x40\n      mstore\n      dup1\n      iszero\n      tag_84\n      jumpi\n      dup2\n      0x20\n      add\n      0x20\n      dup3\n      mul\n      dup1\n      calldatasize\n      dup4\n      calldatacopy\n      dup1\n      dup3\n      add\n      swap2\n      pop\n      pop\n      swap1\n      pop\n    tag_84:\n      pop\n        /* \"contracts/Operations.sol\":1686:1719  uint[] memory fib = new uint[](n) */\n      swap1\n      pop\n        /* \"contracts/Operations.sol\":1730:1736  uint a */\n      0x00\n        /* \"contracts/Operations.sol\":1751:1757  uint b */\n      dup1\n        /* \"contracts/Operations.sol\":1760:1761  1 */\n      0x01\n        /* \"contracts/Operations.sol\":1751:1761  uint b = 1 */\n      swap1\n      pop\n        /* \"contracts/Operations.sol\":1781:1782  a */\n      dup2\n        /* \"contracts/Operations.sol\":1772:1775  fib */\n      dup4\n        /* \"contracts/Operations.sol\":1776:1777  0 */\n      0x00\n        /* \"contracts/Operations.sol\":1772:1778  fib[0] */\n      dup2\n      mload\n      dup2\n      lt\n      tag_85\n      jumpi\n      tag_86\n      tag_61\n      jump\t// in\n    tag_86:\n    tag_85:\n      0x20\n      mul\n      0x20\n      add\n      add\n        /* \"contracts/Operations.sol\":1772:1782  fib[0] = a */\n      dup2\n      dup2\n      mstore\n      pop\n      pop\n        /* \"contracts/Operations.sol\":1802:1803  b */\n      dup1\n        /* \"contracts/Operations.sol\":1793:1796  fib */\n      dup4\n        /* \"contracts/Operations.sol\":1797:1798  1 */\n      0x01\n        /* \"contracts/Operations.sol\":1793:1799  fib[1] */\n      dup2\n      mload\n      dup2\n      lt\n      tag_87\n      jumpi\n      tag_88\n      tag_61\n      jump\t// in\n    tag_88:\n    tag_87:\n      0x20\n      mul\n      0x20\n      add\n      add\n        /* \"contracts/Operations.sol\":1793:1803  fib[1] = b */\n      dup2\n      dup2\n      mstore\n      pop\n      pop\n        /* \"contracts/Operations.sol\":1821:1827  uint i */\n      0x00\n        /* \"contracts/Operations.sol\":1830:1831  2 */\n      0x02\n        /* \"contracts/Operations.sol\":1821:1831  uint i = 2 */\n      swap1\n      pop\n        /* \"contracts/Operations.sol\":1816:1951  for (uint i = 2; i < n; i++) {... */\n    tag_89:\n        /* \"contracts/Operations.sol\":1837:1838  n */\n      dup6\n        /* \"contracts/Operations.sol\":1833:1834  i */\n      dup2\n        /* \"contracts/Operations.sol\":1833:1838  i < n */\n      lt\n        /* \"contracts/Operations.sol\":1816:1951  for (uint i = 2; i < n; i++) {... */\n      iszero\n      tag_90\n      jumpi\n        /* \"contracts/Operations.sol\":1860:1866  uint c */\n      0x00\n        /* \"contracts/Operations.sol\":1873:1874  b */\n      dup3\n        /* \"contracts/Operations.sol\":1869:1870  a */\n      dup5\n        /* \"contracts/Operations.sol\":1869:1874  a + b */\n      tag_92\n      swap2\n      swap1\n      tag_93\n      jump\t// in\n    tag_92:\n        /* \"contracts/Operations.sol\":1860:1874  uint c = a + b */\n      swap1\n      pop\n        /* \"contracts/Operations.sol\":1898:1899  c */\n      dup1\n        /* \"contracts/Operations.sol\":1889:1892  fib */\n      dup6\n        /* \"contracts/Operations.sol\":1893:1894  i */\n      dup4\n        /* \"contracts/Operations.sol\":1889:1895  fib[i] */\n      dup2\n      mload\n      dup2\n      lt\n      tag_94\n      jumpi\n      tag_95\n      tag_61\n      jump\t// in\n    tag_95:\n    tag_94:\n      0x20\n      mul\n      0x20\n      add\n      add\n        /* \"contracts/Operations.sol\":1889:1899  fib[i] = c */\n      dup2\n      dup2\n      mstore\n      pop\n      pop\n        /* \"contracts/Operations.sol\":1918:1919  b */\n      dup3\n        /* \"contracts/Operations.sol\":1914:1919  a = b */\n      swap4\n      pop\n        /* \"contracts/Operations.sol\":1938:1939  c */\n      dup1\n        /* \"contracts/Operations.sol\":1934:1939  b = c */\n      swap3\n      pop\n        /* \"contracts/Operations.sol\":1845:1951  {... */\n      pop\n        /* \"contracts/Operations.sol\":1840:1843  i++ */\n      dup1\n      dup1\n      tag_96\n      swap1\n      tag_65\n      jump\t// in\n    tag_96:\n      swap2\n      pop\n      pop\n        /* \"contracts/Operations.sol\":1816:1951  for (uint i = 2; i < n; i++) {... */\n      jump(tag_89)\n    tag_90:\n      pop\n        /* \"contracts/Operations.sol\":1972:1975  fib */\n      dup3\n        /* \"contracts/Operations.sol\":1965:1975  return fib */\n      swap4\n      pop\n      pop\n      pop\n      pop\n        /* \"contracts/Operations.sol\":1612:1983  function fibonacci(uint n) public pure returns (uint[] memory) {... */\n      swap2\n      swap1\n      pop\n      jump\t// out\n        /* \"contracts/Operations.sol\":250:337  function add(uint a, uint b) public pure returns (uint) {... */\n    tag_37:\n        /* \"contracts/Operations.sol\":300:304  uint */\n      0x00\n        /* \"contracts/Operations.sol\":328:329  b */\n      dup2\n        /* \"contracts/Operations.sol\":324:325  a */\n      dup4\n        /* \"contracts/Operations.sol\":324:329  a + b */\n      tag_98\n      swap2\n      swap1\n      tag_93\n      jump\t// in\n    tag_98:\n        /* \"contracts/Operations.sol\":317:329  return a + b */\n      swap1\n      pop\n        /* \"contracts/Operations.sol\":250:337  function add(uint a, uint b) public pure returns (uint) {... */\n      swap3\n      swap2\n      pop\n      pop\n      jump\t// out\n        /* \"contracts/Operations.sol\":1165:1534  function divideNumbers(uint256[] memory nums) public pure returns (uint256) {... */\n    tag_41:\n        /* \"contracts/Operations.sol\":1232:1239  uint256 */\n      0x00\n        /* \"contracts/Operations.sol\":1275:1276  2 */\n      0x02\n        /* \"contracts/Operations.sol\":1260:1264  nums */\n      dup3\n        /* \"contracts/Operations.sol\":1260:1271  nums.length */\n      mload\n        /* \"contracts/Operations.sol\":1260:1276  nums.length >= 2 */\n      lt\n      iszero\n        /* \"contracts/Operations.sol\":1252:1310  require(nums.length >= 2, \"At least two numbers required\") */\n      tag_100\n      jumpi\n      mload(0x40)\n      0x08c379a000000000000000000000000000000000000000000000000000000000\n      dup2\n      mstore\n      0x04\n      add\n      tag_101\n      swap1\n      tag_102\n      jump\t// in\n    tag_101:\n      mload(0x40)\n      dup1\n      swap2\n      sub\n      swap1\n      revert\n    tag_100:\n        /* \"contracts/Operations.sol\":1321:1335  uint256 result */\n      0x00\n        /* \"contracts/Operations.sol\":1338:1342  nums */\n      dup3\n        /* \"contracts/Operations.sol\":1343:1344  0 */\n      0x00\n        /* \"contracts/Operations.sol\":1338:1345  nums[0] */\n      dup2\n      mload\n      dup2\n      lt\n      tag_103\n      jumpi\n      tag_104\n      tag_61\n      jump\t// in\n    tag_104:\n    tag_103:\n      0x20\n      mul\n      0x20\n      add\n      add\n      mload\n        /* \"contracts/Operations.sol\":1321:1345  uint256 result = nums[0] */\n      swap1\n      pop\n        /* \"contracts/Operations.sol\":1361:1370  uint256 i */\n      0x00\n        /* \"contracts/Operations.sol\":1373:1374  1 */\n      0x01\n        /* \"contracts/Operations.sol\":1361:1374  uint256 i = 1 */\n      swap1\n      pop\n        /* \"contracts/Operations.sol\":1356:1503  for (uint256 i = 1; i < nums.length; i++) {... */\n    tag_105:\n        /* \"contracts/Operations.sol\":1380:1384  nums */\n      dup4\n        /* \"contracts/Operations.sol\":1380:1391  nums.length */\n      mload\n        /* \"contracts/Operations.sol\":1376:1377  i */\n      dup2\n        /* \"contracts/Operations.sol\":1376:1391  i < nums.length */\n      lt\n        /* \"contracts/Operations.sol\":1356:1503  for (uint256 i = 1; i < nums.length; i++) {... */\n      iszero\n      tag_106\n      jumpi\n        /* \"contracts/Operations.sol\":1432:1433  0 */\n      0x00\n        /* \"contracts/Operations.sol\":1421:1425  nums */\n      dup5\n        /* \"contracts/Operations.sol\":1426:1427  i */\n      dup3\n        /* \"contracts/Operations.sol\":1421:1428  nums[i] */\n      dup2\n      mload\n      dup2\n      lt\n      tag_108\n      jumpi\n      tag_109\n      tag_61\n      jump\t// in\n    tag_109:\n    tag_108:\n      0x20\n      mul\n      0x20\n      add\n      add\n      mload\n        /* \"contracts/Operations.sol\":1421:1433  nums[i] != 0 */\n      sub\n        /* \"contracts/Operations.sol\":1413:1459  require(nums[i] != 0, \"Cannot divide by zero\") */\n      tag_110\n      jumpi\n      mload(0x40)\n      0x08c379a000000000000000000000000000000000000000000000000000000000\n      dup2\n      mstore\n      0x04\n      add\n      tag_111\n      swap1\n      tag_112\n      jump\t// in\n    tag_111:\n      mload(0x40)\n      dup1\n      swap2\n      sub\n      swap1\n      revert\n    tag_110:\n        /* \"contracts/Operations.sol\":1484:1488  nums */\n      dup4\n        /* \"contracts/Operations.sol\":1489:1490  i */\n      dup2\n        /* \"contracts/Operations.sol\":1484:1491  nums[i] */\n      dup2\n      mload\n      dup2\n      lt\n      tag_113\n      jumpi\n      tag_114\n      tag_61\n      jump\t// in\n    tag_114:\n    tag_113:\n      0x20\n      mul\n      0x20\n      add\n      add\n      mload\n        /* \"contracts/Operations.sol\":1474:1491  result /= nums[i] */\n      dup3\n      tag_115\n      swap2\n      swap1\n      tag_116\n      jump\t// in\n    tag_115:\n      swap2\n      pop\n        /* \"contracts/Operations.sol\":1393:1396  i++ */\n      dup1\n      dup1\n      tag_117\n      swap1\n      tag_65\n      jump\t// in\n    tag_117:\n      swap2\n      pop\n      pop\n        /* \"contracts/Operations.sol\":1356:1503  for (uint256 i = 1; i < nums.length; i++) {... */\n      jump(tag_105)\n    tag_106:\n      pop\n        /* \"contracts/Operations.sol\":1520:1526  result */\n      dup1\n        /* \"contracts/Operations.sol\":1513:1526  return result */\n      swap2\n      pop\n      pop\n        /* \"contracts/Operations.sol\":1165:1534  function divideNumbers(uint256[] memory nums) public pure returns (uint256) {... */\n      swap2\n      swap1\n      pop\n      jump\t// out\n        /* \"contracts/Operations.sol\":2054:2307  function addFibonacci(uint n) public pure returns (uint) {... */\n    tag_45:\n        /* \"contracts/Operations.sol\":2105:2109  uint */\n      0x00\n        /* \"contracts/Operations.sol\":2122:2139  uint[] memory fib */\n      dup1\n        /* \"contracts/Operations.sol\":2142:2154  fibonacci(n) */\n      tag_119\n        /* \"contracts/Operations.sol\":2152:2153  n */\n      dup4\n        /* \"contracts/Operations.sol\":2142:2151  fibonacci */\n      tag_31\n        /* \"contracts/Operations.sol\":2142:2154  fibonacci(n) */\n      jump\t// in\n    tag_119:\n        /* \"contracts/Operations.sol\":2122:2154  uint[] memory fib = fibonacci(n) */\n      swap1\n      pop\n        /* \"contracts/Operations.sol\":2165:2173  uint sum */\n      0x00\n        /* \"contracts/Operations.sol\":2195:2201  uint i */\n      dup1\n        /* \"contracts/Operations.sol\":2190:2277  for (uint i = 0; i < fib.length; i++) {... */\n    tag_120:\n        /* \"contracts/Operations.sol\":2211:2214  fib */\n      dup3\n        /* \"contracts/Operations.sol\":2211:2221  fib.length */\n      mload\n        /* \"contracts/Operations.sol\":2207:2208  i */\n      dup2\n        /* \"contracts/Operations.sol\":2207:2221  i < fib.length */\n      lt\n        /* \"contracts/Operations.sol\":2190:2277  for (uint i = 0; i < fib.length; i++) {... */\n      iszero\n      tag_121\n      jumpi\n        /* \"contracts/Operations.sol\":2249:2265  add(sum, fib[i]) */\n      tag_123\n        /* \"contracts/Operations.sol\":2253:2256  sum */\n      dup3\n        /* \"contracts/Operations.sol\":2258:2261  fib */\n      dup5\n        /* \"contracts/Operations.sol\":2262:2263  i */\n      dup4\n        /* \"contracts/Operations.sol\":2258:2264  fib[i] */\n      dup2\n      mload\n      dup2\n      lt\n      tag_124\n      jumpi\n      tag_125\n      tag_61\n      jump\t// in\n    tag_125:\n    tag_124:\n      0x20\n      mul\n      0x20\n      add\n      add\n      mload\n        /* \"contracts/Operations.sol\":2249:2252  add */\n      tag_37\n        /* \"contracts/Operations.sol\":2249:2265  add(sum, fib[i]) */\n      jump\t// in\n    tag_123:\n        /* \"contracts/Operations.sol\":2243:2265  sum = add(sum, fib[i]) */\n      swap2\n      pop\n        /* \"contracts/Operations.sol\":2223:2226  i++ */\n      dup1\n      dup1\n      tag_126\n      swap1\n      tag_65\n      jump\t// in\n    tag_126:\n      swap2\n      pop\n      pop\n        /* \"contracts/Operations.sol\":2190:2277  for (uint i = 0; i < fib.length; i++) {... */\n      jump(tag_120)\n    tag_121:\n      pop\n        /* \"contracts/Operations.sol\":2296:2299  sum */\n      dup1\n        /* \"contracts/Operations.sol\":2289:2299  return sum */\n      swap3\n      pop\n      pop\n      pop\n        /* \"contracts/Operations.sol\":2054:2307  function addFibonacci(uint n) public pure returns (uint) {... */\n      swap2\n      swap1\n      pop\n      jump\t// out\n        /* \"contracts/Operations.sol\":2493:2630  function addAndCheckEvenOdd(uint n) public pure returns (bool) {... */\n    tag_49:\n        /* \"contracts/Operations.sol\":2550:2554  bool */\n      0x00\n        /* \"contracts/Operations.sol\":2567:2575  uint sum */\n      dup1\n        /* \"contracts/Operations.sol\":2578:2593  addFibonacci(n) */\n      tag_128\n        /* \"contracts/Operations.sol\":2591:2592  n */\n      dup4\n        /* \"contracts/Operations.sol\":2578:2590  addFibonacci */\n      tag_45\n        /* \"contracts/Operations.sol\":2578:2593  addFibonacci(n) */\n      jump\t// in\n    tag_128:\n        /* \"contracts/Operations.sol\":2567:2593  uint sum = addFibonacci(n) */\n      swap1\n      pop\n        /* \"contracts/Operations.sol\":2611:2622  isEven(sum) */\n      tag_129\n        /* \"contracts/Operations.sol\":2618:2621  sum */\n      dup2\n        /* \"contracts/Operations.sol\":2611:2617  isEven */\n      tag_22\n        /* \"contracts/Operations.sol\":2611:2622  isEven(sum) */\n      jump\t// in\n    tag_129:\n        /* \"contracts/Operations.sol\":2604:2622  return isEven(sum) */\n      swap2\n      pop\n      pop\n        /* \"contracts/Operations.sol\":2493:2630  function addAndCheckEvenOdd(uint n) public pure returns (bool) {... */\n      swap2\n      swap1\n      pop\n      jump\t// out\n        /* \"contracts/Operations.sol\":400:618  function addNumbers(uint[] memory numbers) public pure returns (uint) {... */\n    tag_53:\n        /* \"contracts/Operations.sol\":464:468  uint */\n      0x00\n        /* \"contracts/Operations.sol\":481:489  uint sum */\n      dup1\n        /* \"contracts/Operations.sol\":492:493  0 */\n      0x00\n        /* \"contracts/Operations.sol\":481:493  uint sum = 0 */\n      swap1\n      pop\n        /* \"contracts/Operations.sol\":509:515  uint i */\n      0x00\n        /* \"contracts/Operations.sol\":504:590  for (uint i = 0; i < numbers.length; i++) {... */\n    tag_131:\n        /* \"contracts/Operations.sol\":525:532  numbers */\n      dup4\n        /* \"contracts/Operations.sol\":525:539  numbers.length */\n      mload\n        /* \"contracts/Operations.sol\":521:522  i */\n      dup2\n        /* \"contracts/Operations.sol\":521:539  i < numbers.length */\n      lt\n        /* \"contracts/Operations.sol\":504:590  for (uint i = 0; i < numbers.length; i++) {... */\n      iszero\n      tag_132\n      jumpi\n        /* \"contracts/Operations.sol\":568:575  numbers */\n      dup4\n        /* \"contracts/Operations.sol\":576:577  i */\n      dup2\n        /* \"contracts/Operations.sol\":568:578  numbers[i] */\n      dup2\n      mload\n      dup2\n      lt\n      tag_134\n      jumpi\n      tag_135\n      tag_61\n      jump\t// in\n    tag_135:\n    tag_134:\n      0x20\n      mul\n      0x20\n      add\n      add\n      mload\n        /* \"contracts/Operations.sol\":561:578  sum += numbers[i] */\n      dup3\n      tag_136\n      swap2\n      swap1\n      tag_93\n      jump\t// in\n    tag_136:\n      swap2\n      pop\n        /* \"contracts/Operations.sol\":541:544  i++ */\n      dup1\n      dup1\n      tag_137\n      swap1\n      tag_65\n      jump\t// in\n    tag_137:\n      swap2\n      pop\n      pop\n        /* \"contracts/Operations.sol\":504:590  for (uint i = 0; i < numbers.length; i++) {... */\n      jump(tag_131)\n    tag_132:\n      pop\n        /* \"contracts/Operations.sol\":607:610  sum */\n      dup1\n        /* \"contracts/Operations.sol\":600:610  return sum */\n      swap2\n      pop\n      pop\n        /* \"contracts/Operations.sol\":400:618  function addNumbers(uint[] memory numbers) public pure returns (uint) {... */\n      swap2\n      swap1\n      pop\n      jump\t// out\n        /* \"#utility.yul\":7:82   */\n    tag_138:\n        /* \"#utility.yul\":40:46   */\n      0x00\n        /* \"#utility.yul\":73:75   */\n      0x40\n        /* \"#utility.yul\":67:76   */\n      mload\n        /* \"#utility.yul\":57:76   */\n      swap1\n      pop\n        /* \"#utility.yul\":7:82   */\n      swap1\n      jump\t// out\n        /* \"#utility.yul\":88:205   */\n    tag_139:\n        /* \"#utility.yul\":197:198   */\n      0x00\n        /* \"#utility.yul\":194:195   */\n      dup1\n        /* \"#utility.yul\":187:199   */\n      revert\n        /* \"#utility.yul\":211:328   */\n    tag_140:\n        /* \"#utility.yul\":320:321   */\n      0x00\n        /* \"#utility.yul\":317:318   */\n      dup1\n        /* \"#utility.yul\":310:322   */\n      revert\n        /* \"#utility.yul\":334:451   */\n    tag_141:\n        /* \"#utility.yul\":443:444   */\n      0x00\n        /* \"#utility.yul\":440:441   */\n      dup1\n        /* \"#utility.yul\":433:445   */\n      revert\n        /* \"#utility.yul\":457:559   */\n    tag_142:\n        /* \"#utility.yul\":498:504   */\n      0x00\n        /* \"#utility.yul\":549:551   */\n      0x1f\n        /* \"#utility.yul\":545:552   */\n      not\n        /* \"#utility.yul\":540:542   */\n      0x1f\n        /* \"#utility.yul\":533:538   */\n      dup4\n        /* \"#utility.yul\":529:543   */\n      add\n        /* \"#utility.yul\":525:553   */\n      and\n        /* \"#utility.yul\":515:553   */\n      swap1\n      pop\n        /* \"#utility.yul\":457:559   */\n      swap2\n      swap1\n      pop\n      jump\t// out\n        /* \"#utility.yul\":565:745   */\n    tag_83:\n        /* \"#utility.yul\":613:690   */\n      0x4e487b7100000000000000000000000000000000000000000000000000000000\n        /* \"#utility.yul\":610:611   */\n      0x00\n        /* \"#utility.yul\":603:691   */\n      mstore\n        /* \"#utility.yul\":710:714   */\n      0x41\n        /* \"#utility.yul\":707:708   */\n      0x04\n        /* \"#utility.yul\":700:715   */\n      mstore\n        /* \"#utility.yul\":734:738   */\n      0x24\n        /* \"#utility.yul\":731:732   */\n      0x00\n        /* \"#utility.yul\":724:739   */\n      revert\n        /* \"#utility.yul\":751:1032   */\n    tag_143:\n        /* \"#utility.yul\":834:861   */\n      tag_177\n        /* \"#utility.yul\":856:860   */\n      dup3\n        /* \"#utility.yul\":834:861   */\n      tag_142\n      jump\t// in\n    tag_177:\n        /* \"#utility.yul\":826:832   */\n      dup2\n        /* \"#utility.yul\":822:862   */\n      add\n        /* \"#utility.yul\":964:970   */\n      dup2\n        /* \"#utility.yul\":952:962   */\n      dup2\n        /* \"#utility.yul\":949:971   */\n      lt\n        /* \"#utility.yul\":928:946   */\n      0xffffffffffffffff\n        /* \"#utility.yul\":916:926   */\n      dup3\n        /* \"#utility.yul\":913:947   */\n      gt\n        /* \"#utility.yul\":910:972   */\n      or\n        /* \"#utility.yul\":907:995   */\n      iszero\n      tag_178\n      jumpi\n        /* \"#utility.yul\":975:993   */\n      tag_179\n      tag_83\n      jump\t// in\n    tag_179:\n        /* \"#utility.yul\":907:995   */\n    tag_178:\n        /* \"#utility.yul\":1015:1025   */\n      dup1\n        /* \"#utility.yul\":1011:1013   */\n      0x40\n        /* \"#utility.yul\":1004:1026   */\n      mstore\n        /* \"#utility.yul\":794:1032   */\n      pop\n        /* \"#utility.yul\":751:1032   */\n      pop\n      pop\n      jump\t// out\n        /* \"#utility.yul\":1038:1167   */\n    tag_144:\n        /* \"#utility.yul\":1072:1078   */\n      0x00\n        /* \"#utility.yul\":1099:1119   */\n      tag_181\n      tag_138\n      jump\t// in\n    tag_181:\n        /* \"#utility.yul\":1089:1119   */\n      swap1\n      pop\n        /* \"#utility.yul\":1128:1161   */\n      tag_182\n        /* \"#utility.yul\":1156:1160   */\n      dup3\n        /* \"#utility.yul\":1148:1154   */\n      dup3\n        /* \"#utility.yul\":1128:1161   */\n      tag_143\n      jump\t// in\n    tag_182:\n        /* \"#utility.yul\":1038:1167   */\n      swap2\n      swap1\n      pop\n      jump\t// out\n        /* \"#utility.yul\":1173:1484   */\n    tag_145:\n        /* \"#utility.yul\":1250:1254   */\n      0x00\n        /* \"#utility.yul\":1340:1358   */\n      0xffffffffffffffff\n        /* \"#utility.yul\":1332:1338   */\n      dup3\n        /* \"#utility.yul\":1329:1359   */\n      gt\n        /* \"#utility.yul\":1326:1382   */\n      iszero\n      tag_184\n      jumpi\n        /* \"#utility.yul\":1362:1380   */\n      tag_185\n      tag_83\n      jump\t// in\n    tag_185:\n        /* \"#utility.yul\":1326:1382   */\n    tag_184:\n        /* \"#utility.yul\":1412:1416   */\n      0x20\n        /* \"#utility.yul\":1404:1410   */\n      dup3\n        /* \"#utility.yul\":1400:1417   */\n      mul\n        /* \"#utility.yul\":1392:1417   */\n      swap1\n      pop\n        /* \"#utility.yul\":1472:1476   */\n      0x20\n        /* \"#utility.yul\":1466:1470   */\n      dup2\n        /* \"#utility.yul\":1462:1477   */\n      add\n        /* \"#utility.yul\":1454:1477   */\n      swap1\n      pop\n        /* \"#utility.yul\":1173:1484   */\n      swap2\n      swap1\n      pop\n      jump\t// out\n        /* \"#utility.yul\":1490:1607   */\n    tag_146:\n        /* \"#utility.yul\":1599:1600   */\n      0x00\n        /* \"#utility.yul\":1596:1597   */\n      dup1\n        /* \"#utility.yul\":1589:1601   */\n      revert\n        /* \"#utility.yul\":1613:1690   */\n    tag_147:\n        /* \"#utility.yul\":1650:1657   */\n      0x00\n        /* \"#utility.yul\":1679:1684   */\n      dup2\n        /* \"#utility.yul\":1668:1684   */\n      swap1\n      pop\n        /* \"#utility.yul\":1613:1690   */\n      swap2\n      swap1\n      pop\n      jump\t// out\n        /* \"#utility.yul\":1696:1818   */\n    tag_148:\n        /* \"#utility.yul\":1769:1793   */\n      tag_189\n        /* \"#utility.yul\":1787:1792   */\n      dup2\n        /* \"#utility.yul\":1769:1793   */\n      tag_147\n      jump\t// in\n    tag_189:\n        /* \"#utility.yul\":1762:1767   */\n      dup2\n        /* \"#utility.yul\":1759:1794   */\n      eq\n        /* \"#utility.yul\":1749:1812   */\n      tag_190\n      jumpi\n        /* \"#utility.yul\":1808:1809   */\n      0x00\n        /* \"#utility.yul\":1805:1806   */\n      dup1\n        /* \"#utility.yul\":1798:1810   */\n      revert\n        /* \"#utility.yul\":1749:1812   */\n    tag_190:\n        /* \"#utility.yul\":1696:1818   */\n      pop\n      jump\t// out\n        /* \"#utility.yul\":1824:1963   */\n    tag_149:\n        /* \"#utility.yul\":1870:1875   */\n      0x00\n        /* \"#utility.yul\":1908:1914   */\n      dup2\n        /* \"#utility.yul\":1895:1915   */\n      calldataload\n        /* \"#utility.yul\":1886:1915   */\n      swap1\n      pop\n        /* \"#utility.yul\":1924:1957   */\n      tag_192\n        /* \"#utility.yul\":1951:1956   */\n      dup2\n        /* \"#utility.yul\":1924:1957   */\n      tag_148\n      jump\t// in\n    tag_192:\n        /* \"#utility.yul\":1824:1963   */\n      swap3\n      swap2\n      pop\n      pop\n      jump\t// out\n        /* \"#utility.yul\":1986:2696   */\n    tag_150:\n        /* \"#utility.yul\":2082:2087   */\n      0x00\n        /* \"#utility.yul\":2107:2188   */\n      tag_194\n        /* \"#utility.yul\":2123:2187   */\n      tag_195\n        /* \"#utility.yul\":2180:2186   */\n      dup5\n        /* \"#utility.yul\":2123:2187   */\n      tag_145\n      jump\t// in\n    tag_195:\n        /* \"#utility.yul\":2107:2188   */\n      tag_144\n      jump\t// in\n    tag_194:\n        /* \"#utility.yul\":2098:2188   */\n      swap1\n      pop\n        /* \"#utility.yul\":2208:2213   */\n      dup1\n        /* \"#utility.yul\":2237:2243   */\n      dup4\n        /* \"#utility.yul\":2230:2235   */\n      dup3\n        /* \"#utility.yul\":2223:2244   */\n      mstore\n        /* \"#utility.yul\":2271:2275   */\n      0x20\n        /* \"#utility.yul\":2264:2269   */\n      dup3\n        /* \"#utility.yul\":2260:2276   */\n      add\n        /* \"#utility.yul\":2253:2276   */\n      swap1\n      pop\n        /* \"#utility.yul\":2324:2328   */\n      0x20\n        /* \"#utility.yul\":2316:2322   */\n      dup5\n        /* \"#utility.yul\":2312:2329   */\n      mul\n        /* \"#utility.yul\":2304:2310   */\n      dup4\n        /* \"#utility.yul\":2300:2330   */\n      add\n        /* \"#utility.yul\":2353:2356   */\n      dup6\n        /* \"#utility.yul\":2345:2351   */\n      dup2\n        /* \"#utility.yul\":2342:2357   */\n      gt\n        /* \"#utility.yul\":2339:2461   */\n      iszero\n      tag_196\n      jumpi\n        /* \"#utility.yul\":2372:2451   */\n      tag_197\n      tag_146\n      jump\t// in\n    tag_197:\n        /* \"#utility.yul\":2339:2461   */\n    tag_196:\n        /* \"#utility.yul\":2487:2493   */\n      dup4\n        /* \"#utility.yul\":2470:2690   */\n    tag_198:\n        /* \"#utility.yul\":2504:2510   */\n      dup2\n        /* \"#utility.yul\":2499:2502   */\n      dup2\n        /* \"#utility.yul\":2496:2511   */\n      lt\n        /* \"#utility.yul\":2470:2690   */\n      iszero\n      tag_200\n      jumpi\n        /* \"#utility.yul\":2579:2582   */\n      dup1\n        /* \"#utility.yul\":2608:2645   */\n      tag_201\n        /* \"#utility.yul\":2641:2644   */\n      dup9\n        /* \"#utility.yul\":2629:2639   */\n      dup3\n        /* \"#utility.yul\":2608:2645   */\n      tag_149\n      jump\t// in\n    tag_201:\n        /* \"#utility.yul\":2603:2606   */\n      dup5\n        /* \"#utility.yul\":2596:2646   */\n      mstore\n        /* \"#utility.yul\":2675:2679   */\n      0x20\n        /* \"#utility.yul\":2670:2673   */\n      dup5\n        /* \"#utility.yul\":2666:2680   */\n      add\n        /* \"#utility.yul\":2659:2680   */\n      swap4\n      pop\n        /* \"#utility.yul\":2546:2690   */\n      pop\n        /* \"#utility.yul\":2530:2534   */\n      0x20\n        /* \"#utility.yul\":2525:2528   */\n      dup2\n        /* \"#utility.yul\":2521:2535   */\n      add\n        /* \"#utility.yul\":2514:2535   */\n      swap1\n      pop\n        /* \"#utility.yul\":2470:2690   */\n      jump(tag_198)\n    tag_200:\n        /* \"#utility.yul\":2474:2495   */\n      pop\n        /* \"#utility.yul\":2088:2696   */\n      pop\n      pop\n        /* \"#utility.yul\":1986:2696   */\n      swap4\n      swap3\n      pop\n      pop\n      pop\n      jump\t// out\n        /* \"#utility.yul\":2719:3089   */\n    tag_151:\n        /* \"#utility.yul\":2790:2795   */\n      0x00\n        /* \"#utility.yul\":2839:2842   */\n      dup3\n        /* \"#utility.yul\":2832:2836   */\n      0x1f\n        /* \"#utility.yul\":2824:2830   */\n      dup4\n        /* \"#utility.yul\":2820:2837   */\n      add\n        /* \"#utility.yul\":2816:2843   */\n      slt\n        /* \"#utility.yul\":2806:2928   */\n      tag_203\n      jumpi\n        /* \"#utility.yul\":2847:2926   */\n      tag_204\n      tag_141\n      jump\t// in\n    tag_204:\n        /* \"#utility.yul\":2806:2928   */\n    tag_203:\n        /* \"#utility.yul\":2964:2970   */\n      dup2\n        /* \"#utility.yul\":2951:2971   */\n      calldataload\n        /* \"#utility.yul\":2989:3083   */\n      tag_205\n        /* \"#utility.yul\":3079:3082   */\n      dup5\n        /* \"#utility.yul\":3071:3077   */\n      dup3\n        /* \"#utility.yul\":3064:3068   */\n      0x20\n        /* \"#utility.yul\":3056:3062   */\n      dup7\n        /* \"#utility.yul\":3052:3069   */\n      add\n        /* \"#utility.yul\":2989:3083   */\n      tag_150\n      jump\t// in\n    tag_205:\n        /* \"#utility.yul\":2980:3083   */\n      swap2\n      pop\n        /* \"#utility.yul\":2796:3089   */\n      pop\n        /* \"#utility.yul\":2719:3089   */\n      swap3\n      swap2\n      pop\n      pop\n      jump\t// out\n        /* \"#utility.yul\":3095:3634   */\n    tag_15:\n        /* \"#utility.yul\":3179:3185   */\n      0x00\n        /* \"#utility.yul\":3228:3230   */\n      0x20\n        /* \"#utility.yul\":3216:3225   */\n      dup3\n        /* \"#utility.yul\":3207:3214   */\n      dup5\n        /* \"#utility.yul\":3203:3226   */\n      sub\n        /* \"#utility.yul\":3199:3231   */\n      slt\n        /* \"#utility.yul\":3196:3315   */\n      iszero\n      tag_207\n      jumpi\n        /* \"#utility.yul\":3234:3313   */\n      tag_208\n      tag_139\n      jump\t// in\n    tag_208:\n        /* \"#utility.yul\":3196:3315   */\n    tag_207:\n        /* \"#utility.yul\":3382:3383   */\n      0x00\n        /* \"#utility.yul\":3371:3380   */\n      dup3\n        /* \"#utility.yul\":3367:3384   */\n      add\n        /* \"#utility.yul\":3354:3385   */\n      calldataload\n        /* \"#utility.yul\":3412:3430   */\n      0xffffffffffffffff\n        /* \"#utility.yul\":3404:3410   */\n      dup2\n        /* \"#utility.yul\":3401:3431   */\n      gt\n        /* \"#utility.yul\":3398:3515   */\n      iszero\n      tag_209\n      jumpi\n        /* \"#utility.yul\":3434:3513   */\n      tag_210\n      tag_140\n      jump\t// in\n    tag_210:\n        /* \"#utility.yul\":3398:3515   */\n    tag_209:\n        /* \"#utility.yul\":3539:3617   */\n      tag_211\n        /* \"#utility.yul\":3609:3616   */\n      dup5\n        /* \"#utility.yul\":3600:3606   */\n      dup3\n        /* \"#utility.yul\":3589:3598   */\n      dup6\n        /* \"#utility.yul\":3585:3607   */\n      add\n        /* \"#utility.yul\":3539:3617   */\n      tag_151\n      jump\t// in\n    tag_211:\n        /* \"#utility.yul\":3529:3617   */\n      swap2\n      pop\n        /* \"#utility.yul\":3325:3627   */\n      pop\n        /* \"#utility.yul\":3095:3634   */\n      swap3\n      swap2\n      pop\n      pop\n      jump\t// out\n        /* \"#utility.yul\":3640:3758   */\n    tag_152:\n        /* \"#utility.yul\":3727:3751   */\n      tag_213\n        /* \"#utility.yul\":3745:3750   */\n      dup2\n        /* \"#utility.yul\":3727:3751   */\n      tag_147\n      jump\t// in\n    tag_213:\n        /* \"#utility.yul\":3722:3725   */\n      dup3\n        /* \"#utility.yul\":3715:3752   */\n      mstore\n        /* \"#utility.yul\":3640:3758   */\n      pop\n      pop\n      jump\t// out\n        /* \"#utility.yul\":3764:3986   */\n    tag_18:\n        /* \"#utility.yul\":3857:3861   */\n      0x00\n        /* \"#utility.yul\":3895:3897   */\n      0x20\n        /* \"#utility.yul\":3884:3893   */\n      dup3\n        /* \"#utility.yul\":3880:3898   */\n      add\n        /* \"#utility.yul\":3872:3898   */\n      swap1\n      pop\n        /* \"#utility.yul\":3908:3979   */\n      tag_215\n        /* \"#utility.yul\":3976:3977   */\n      0x00\n        /* \"#utility.yul\":3965:3974   */\n      dup4\n        /* \"#utility.yul\":3961:3978   */\n      add\n        /* \"#utility.yul\":3952:3958   */\n      dup5\n        /* \"#utility.yul\":3908:3979   */\n      tag_152\n      jump\t// in\n    tag_215:\n        /* \"#utility.yul\":3764:3986   */\n      swap3\n      swap2\n      pop\n      pop\n      jump\t// out\n        /* \"#utility.yul\":3992:4321   */\n    tag_21:\n        /* \"#utility.yul\":4051:4057   */\n      0x00\n        /* \"#utility.yul\":4100:4102   */\n      0x20\n        /* \"#utility.yul\":4088:4097   */\n      dup3\n        /* \"#utility.yul\":4079:4086   */\n      dup5\n        /* \"#utility.yul\":4075:4098   */\n      sub\n        /* \"#utility.yul\":4071:4103   */\n      slt\n        /* \"#utility.yul\":4068:4187   */\n      iszero\n      tag_217\n      jumpi\n        /* \"#utility.yul\":4106:4185   */\n      tag_218\n      tag_139\n      jump\t// in\n    tag_218:\n        /* \"#utility.yul\":4068:4187   */\n    tag_217:\n        /* \"#utility.yul\":4226:4227   */\n      0x00\n        /* \"#utility.yul\":4251:4304   */\n      tag_219\n        /* \"#utility.yul\":4296:4303   */\n      dup5\n        /* \"#utility.yul\":4287:4293   */\n      dup3\n        /* \"#utility.yul\":4276:4285   */\n      dup6\n        /* \"#utility.yul\":4272:4294   */\n      add\n        /* \"#utility.yul\":4251:4304   */\n      tag_149\n      jump\t// in\n    tag_219:\n        /* \"#utility.yul\":4241:4304   */\n      swap2\n      pop\n        /* \"#utility.yul\":4197:4314   */\n      pop\n        /* \"#utility.yul\":3992:4321   */\n      swap3\n      swap2\n      pop\n      pop\n      jump\t// out\n        /* \"#utility.yul\":4327:4417   */\n    tag_153:\n        /* \"#utility.yul\":4361:4368   */\n      0x00\n        /* \"#utility.yul\":4404:4409   */\n      dup2\n        /* \"#utility.yul\":4397:4410   */\n      iszero\n        /* \"#utility.yul\":4390:4411   */\n      iszero\n        /* \"#utility.yul\":4379:4411   */\n      swap1\n      pop\n        /* \"#utility.yul\":4327:4417   */\n      swap2\n      swap1\n      pop\n      jump\t// out\n        /* \"#utility.yul\":4423:4532   */\n    tag_154:\n        /* \"#utility.yul\":4504:4525   */\n      tag_222\n        /* \"#utility.yul\":4519:4524   */\n      dup2\n        /* \"#utility.yul\":4504:4525   */\n      tag_153\n      jump\t// in\n    tag_222:\n        /* \"#utility.yul\":4499:4502   */\n      dup3\n        /* \"#utility.yul\":4492:4526   */\n      mstore\n        /* \"#utility.yul\":4423:4532   */\n      pop\n      pop\n      jump\t// out\n        /* \"#utility.yul\":4538:4748   */\n    tag_24:\n        /* \"#utility.yul\":4625:4629   */\n      0x00\n        /* \"#utility.yul\":4663:4665   */\n      0x20\n        /* \"#utility.yul\":4652:4661   */\n      dup3\n        /* \"#utility.yul\":4648:4666   */\n      add\n        /* \"#utility.yul\":4640:4666   */\n      swap1\n      pop\n        /* \"#utility.yul\":4676:4741   */\n      tag_224\n        /* \"#utility.yul\":4738:4739   */\n      0x00\n        /* \"#utility.yul\":4727:4736   */\n      dup4\n        /* \"#utility.yul\":4723:4740   */\n      add\n        /* \"#utility.yul\":4714:4720   */\n      dup5\n        /* \"#utility.yul\":4676:4741   */\n      tag_154\n      jump\t// in\n    tag_224:\n        /* \"#utility.yul\":4538:4748   */\n      swap3\n      swap2\n      pop\n      pop\n      jump\t// out\n        /* \"#utility.yul\":4754:4868   */\n    tag_155:\n        /* \"#utility.yul\":4821:4827   */\n      0x00\n        /* \"#utility.yul\":4855:4860   */\n      dup2\n        /* \"#utility.yul\":4849:4861   */\n      mload\n        /* \"#utility.yul\":4839:4861   */\n      swap1\n      pop\n        /* \"#utility.yul\":4754:4868   */\n      swap2\n      swap1\n      pop\n      jump\t// out\n        /* \"#utility.yul\":4874:5058   */\n    tag_156:\n        /* \"#utility.yul\":4973:4984   */\n      0x00\n        /* \"#utility.yul\":5007:5013   */\n      dup3\n        /* \"#utility.yul\":5002:5005   */\n      dup3\n        /* \"#utility.yul\":4995:5014   */\n      mstore\n        /* \"#utility.yul\":5047:5051   */\n      0x20\n        /* \"#utility.yul\":5042:5045   */\n      dup3\n        /* \"#utility.yul\":5038:5052   */\n      add\n        /* \"#utility.yul\":5023:5052   */\n      swap1\n      pop\n        /* \"#utility.yul\":4874:5058   */\n      swap3\n      swap2\n      pop\n      pop\n      jump\t// out\n        /* \"#utility.yul\":5064:5196   */\n    tag_157:\n        /* \"#utility.yul\":5131:5135   */\n      0x00\n        /* \"#utility.yul\":5154:5157   */\n      dup2\n        /* \"#utility.yul\":5146:5157   */\n      swap1\n      pop\n        /* \"#utility.yul\":5184:5188   */\n      0x20\n        /* \"#utility.yul\":5179:5182   */\n      dup3\n        /* \"#utility.yul\":5175:5189   */\n      add\n        /* \"#utility.yul\":5167:5189   */\n      swap1\n      pop\n        /* \"#utility.yul\":5064:5196   */\n      swap2\n      swap1\n      pop\n      jump\t// out\n        /* \"#utility.yul\":5202:5310   */\n    tag_158:\n        /* \"#utility.yul\":5279:5303   */\n      tag_229\n        /* \"#utility.yul\":5297:5302   */\n      dup2\n        /* \"#utility.yul\":5279:5303   */\n      tag_147\n      jump\t// in\n    tag_229:\n        /* \"#utility.yul\":5274:5277   */\n      dup3\n        /* \"#utility.yul\":5267:5304   */\n      mstore\n        /* \"#utility.yul\":5202:5310   */\n      pop\n      pop\n      jump\t// out\n        /* \"#utility.yul\":5316:5495   */\n    tag_159:\n        /* \"#utility.yul\":5385:5395   */\n      0x00\n        /* \"#utility.yul\":5406:5452   */\n      tag_231\n        /* \"#utility.yul\":5448:5451   */\n      dup4\n        /* \"#utility.yul\":5440:5446   */\n      dup4\n        /* \"#utility.yul\":5406:5452   */\n      tag_158\n      jump\t// in\n    tag_231:\n        /* \"#utility.yul\":5484:5488   */\n      0x20\n        /* \"#utility.yul\":5479:5482   */\n      dup4\n        /* \"#utility.yul\":5475:5489   */\n      add\n        /* \"#utility.yul\":5461:5489   */\n      swap1\n      pop\n        /* \"#utility.yul\":5316:5495   */\n      swap3\n      swap2\n      pop\n      pop\n      jump\t// out\n        /* \"#utility.yul\":5501:5614   */\n    tag_160:\n        /* \"#utility.yul\":5571:5575   */\n      0x00\n        /* \"#utility.yul\":5603:5607   */\n      0x20\n        /* \"#utility.yul\":5598:5601   */\n      dup3\n        /* \"#utility.yul\":5594:5608   */\n      add\n        /* \"#utility.yul\":5586:5608   */\n      swap1\n      pop\n        /* \"#utility.yul\":5501:5614   */\n      swap2\n      swap1\n      pop\n      jump\t// out\n        /* \"#utility.yul\":5650:6382   */\n    tag_161:\n        /* \"#utility.yul\":5769:5772   */\n      0x00\n        /* \"#utility.yul\":5798:5852   */\n      tag_234\n        /* \"#utility.yul\":5846:5851   */\n      dup3\n        /* \"#utility.yul\":5798:5852   */\n      tag_155\n      jump\t// in\n    tag_234:\n        /* \"#utility.yul\":5868:5954   */\n      tag_235\n        /* \"#utility.yul\":5947:5953   */\n      dup2\n        /* \"#utility.yul\":5942:5945   */\n      dup6\n        /* \"#utility.yul\":5868:5954   */\n      tag_156\n      jump\t// in\n    tag_235:\n        /* \"#utility.yul\":5861:5954   */\n      swap4\n      pop\n        /* \"#utility.yul\":5978:6034   */\n      tag_236\n        /* \"#utility.yul\":6028:6033   */\n      dup4\n        /* \"#utility.yul\":5978:6034   */\n      tag_157\n      jump\t// in\n    tag_236:\n        /* \"#utility.yul\":6057:6064   */\n      dup1\n        /* \"#utility.yul\":6088:6089   */\n      0x00\n        /* \"#utility.yul\":6073:6357   */\n    tag_237:\n        /* \"#utility.yul\":6098:6104   */\n      dup4\n        /* \"#utility.yul\":6095:6096   */\n      dup2\n        /* \"#utility.yul\":6092:6105   */\n      lt\n        /* \"#utility.yul\":6073:6357   */\n      iszero\n      tag_239\n      jumpi\n        /* \"#utility.yul\":6174:6180   */\n      dup2\n        /* \"#utility.yul\":6168:6181   */\n      mload\n        /* \"#utility.yul\":6201:6264   */\n      tag_240\n        /* \"#utility.yul\":6260:6263   */\n      dup9\n        /* \"#utility.yul\":6245:6258   */\n      dup3\n        /* \"#utility.yul\":6201:6264   */\n      tag_159\n      jump\t// in\n    tag_240:\n        /* \"#utility.yul\":6194:6264   */\n      swap8\n      pop\n        /* \"#utility.yul\":6287:6347   */\n      tag_241\n        /* \"#utility.yul\":6340:6346   */\n      dup4\n        /* \"#utility.yul\":6287:6347   */\n      tag_160\n      jump\t// in\n    tag_241:\n        /* \"#utility.yul\":6277:6347   */\n      swap3\n      pop\n        /* \"#utility.yul\":6133:6357   */\n      pop\n        /* \"#utility.yul\":6120:6121   */\n      0x01\n        /* \"#utility.yul\":6117:6118   */\n      dup2\n        /* \"#utility.yul\":6113:6122   */\n      add\n        /* \"#utility.yul\":6108:6122   */\n      swap1\n      pop\n        /* \"#utility.yul\":6073:6357   */\n      jump(tag_237)\n    tag_239:\n        /* \"#utility.yul\":6077:6091   */\n      pop\n        /* \"#utility.yul\":6373:6376   */\n      dup6\n        /* \"#utility.yul\":6366:6376   */\n      swap4\n      pop\n        /* \"#utility.yul\":5774:6382   */\n      pop\n      pop\n      pop\n        /* \"#utility.yul\":5650:6382   */\n      swap3\n      swap2\n      pop\n      pop\n      jump\t// out\n        /* \"#utility.yul\":6388:6761   */\n    tag_33:\n        /* \"#utility.yul\":6531:6535   */\n      0x00\n        /* \"#utility.yul\":6569:6571   */\n      0x20\n        /* \"#utility.yul\":6558:6567   */\n      dup3\n        /* \"#utility.yul\":6554:6572   */\n      add\n        /* \"#utility.yul\":6546:6572   */\n      swap1\n      pop\n        /* \"#utility.yul\":6618:6627   */\n      dup2\n        /* \"#utility.yul\":6612:6616   */\n      dup2\n        /* \"#utility.yul\":6608:6628   */\n      sub\n        /* \"#utility.yul\":6604:6605   */\n      0x00\n        /* \"#utility.yul\":6593:6602   */\n      dup4\n        /* \"#utility.yul\":6589:6606   */\n      add\n        /* \"#utility.yul\":6582:6629   */\n      mstore\n        /* \"#utility.yul\":6646:6754   */\n      tag_243\n        /* \"#utility.yul\":6749:6753   */\n      dup2\n        /* \"#utility.yul\":6740:6746   */\n      dup5\n        /* \"#utility.yul\":6646:6754   */\n      tag_161\n      jump\t// in\n    tag_243:\n        /* \"#utility.yul\":6638:6754   */\n      swap1\n      pop\n        /* \"#utility.yul\":6388:6761   */\n      swap3\n      swap2\n      pop\n      pop\n      jump\t// out\n        /* \"#utility.yul\":6767:7241   */\n    tag_36:\n        /* \"#utility.yul\":6835:6841   */\n      0x00\n        /* \"#utility.yul\":6843:6849   */\n      dup1\n        /* \"#utility.yul\":6892:6894   */\n      0x40\n        /* \"#utility.yul\":6880:6889   */\n      dup4\n        /* \"#utility.yul\":6871:6878   */\n      dup6\n        /* \"#utility.yul\":6867:6890   */\n      sub\n        /* \"#utility.yul\":6863:6895   */\n      slt\n        /* \"#utility.yul\":6860:6979   */\n      iszero\n      tag_245\n      jumpi\n        /* \"#utility.yul\":6898:6977   */\n      tag_246\n      tag_139\n      jump\t// in\n    tag_246:\n        /* \"#utility.yul\":6860:6979   */\n    tag_245:\n        /* \"#utility.yul\":7018:7019   */\n      0x00\n        /* \"#utility.yul\":7043:7096   */\n      tag_247\n        /* \"#utility.yul\":7088:7095   */\n      dup6\n        /* \"#utility.yul\":7079:7085   */\n      dup3\n        /* \"#utility.yul\":7068:7077   */\n      dup7\n        /* \"#utility.yul\":7064:7086   */\n      add\n        /* \"#utility.yul\":7043:7096   */\n      tag_149\n      jump\t// in\n    tag_247:\n        /* \"#utility.yul\":7033:7096   */\n      swap3\n      pop\n        /* \"#utility.yul\":6989:7106   */\n      pop\n        /* \"#utility.yul\":7145:7147   */\n      0x20\n        /* \"#utility.yul\":7171:7224   */\n      tag_248\n        /* \"#utility.yul\":7216:7223   */\n      dup6\n        /* \"#utility.yul\":7207:7213   */\n      dup3\n        /* \"#utility.yul\":7196:7205   */\n      dup7\n        /* \"#utility.yul\":7192:7214   */\n      add\n        /* \"#utility.yul\":7171:7224   */\n      tag_149\n      jump\t// in\n    tag_248:\n        /* \"#utility.yul\":7161:7224   */\n      swap2\n      pop\n        /* \"#utility.yul\":7116:7234   */\n      pop\n        /* \"#utility.yul\":6767:7241   */\n      swap3\n      pop\n      swap3\n      swap1\n      pop\n      jump\t// out\n        /* \"#utility.yul\":7247:7427   */\n    tag_61:\n        /* \"#utility.yul\":7295:7372   */\n      0x4e487b7100000000000000000000000000000000000000000000000000000000\n        /* \"#utility.yul\":7292:7293   */\n      0x00\n        /* \"#utility.yul\":7285:7373   */\n      mstore\n        /* \"#utility.yul\":7392:7396   */\n      0x32\n        /* \"#utility.yul\":7389:7390   */\n      0x04\n        /* \"#utility.yul\":7382:7397   */\n      mstore\n        /* \"#utility.yul\":7416:7420   */\n      0x24\n        /* \"#utility.yul\":7413:7414   */\n      0x00\n        /* \"#utility.yul\":7406:7421   */\n      revert\n        /* \"#utility.yul\":7433:7613   */\n    tag_162:\n        /* \"#utility.yul\":7481:7558   */\n      0x4e487b7100000000000000000000000000000000000000000000000000000000\n        /* \"#utility.yul\":7478:7479   */\n      0x00\n        /* \"#utility.yul\":7471:7559   */\n      mstore\n        /* \"#utility.yul\":7578:7582   */\n      0x11\n        /* \"#utility.yul\":7575:7576   */\n      0x04\n        /* \"#utility.yul\":7568:7583   */\n      mstore\n        /* \"#utility.yul\":7602:7606   */\n      0x24\n        /* \"#utility.yul\":7599:7600   */\n      0x00\n        /* \"#utility.yul\":7592:7607   */\n      revert\n        /* \"#utility.yul\":7619:8029   */\n    tag_63:\n        /* \"#utility.yul\":7659:7666   */\n      0x00\n        /* \"#utility.yul\":7682:7702   */\n      tag_252\n        /* \"#utility.yul\":7700:7701   */\n      dup3\n        /* \"#utility.yul\":7682:7702   */\n      tag_147\n      jump\t// in\n    tag_252:\n        /* \"#utility.yul\":7677:7702   */\n      swap2\n      pop\n        /* \"#utility.yul\":7716:7736   */\n      tag_253\n        /* \"#utility.yul\":7734:7735   */\n      dup4\n        /* \"#utility.yul\":7716:7736   */\n      tag_147\n      jump\t// in\n    tag_253:\n        /* \"#utility.yul\":7711:7736   */\n      swap3\n      pop\n        /* \"#utility.yul\":7771:7772   */\n      dup3\n        /* \"#utility.yul\":7768:7769   */\n      dup3\n        /* \"#utility.yul\":7764:7773   */\n      mul\n        /* \"#utility.yul\":7793:7823   */\n      tag_254\n        /* \"#utility.yul\":7811:7822   */\n      dup2\n        /* \"#utility.yul\":7793:7823   */\n      tag_147\n      jump\t// in\n    tag_254:\n        /* \"#utility.yul\":7782:7823   */\n      swap2\n      pop\n        /* \"#utility.yul\":7972:7973   */\n      dup3\n        /* \"#utility.yul\":7963:7970   */\n      dup3\n        /* \"#utility.yul\":7959:7974   */\n      div\n        /* \"#utility.yul\":7956:7957   */\n      dup5\n        /* \"#utility.yul\":7953:7975   */\n      eq\n        /* \"#utility.yul\":7933:7934   */\n      dup4\n        /* \"#utility.yul\":7926:7935   */\n      iszero\n        /* \"#utility.yul\":7906:7989   */\n      or\n        /* \"#utility.yul\":7883:8022   */\n      tag_255\n      jumpi\n        /* \"#utility.yul\":8002:8020   */\n      tag_256\n      tag_162\n      jump\t// in\n    tag_256:\n        /* \"#utility.yul\":7883:8022   */\n    tag_255:\n        /* \"#utility.yul\":7667:8029   */\n      pop\n        /* \"#utility.yul\":7619:8029   */\n      swap3\n      swap2\n      pop\n      pop\n      jump\t// out\n        /* \"#utility.yul\":8035:8268   */\n    tag_65:\n        /* \"#utility.yul\":8074:8077   */\n      0x00\n        /* \"#utility.yul\":8097:8121   */\n      tag_258\n        /* \"#utility.yul\":8115:8120   */\n      dup3\n        /* \"#utility.yul\":8097:8121   */\n      tag_147\n      jump\t// in\n    tag_258:\n        /* \"#utility.yul\":8088:8121   */\n      swap2\n      pop\n        /* \"#utility.yul\":8143:8209   */\n      0xffffffffffffffffffffffffffffffffffffffffffffffffffffffffffffffff\n        /* \"#utility.yul\":8136:8141   */\n      dup3\n        /* \"#utility.yul\":8133:8210   */\n      sub\n        /* \"#utility.yul\":8130:8233   */\n      tag_259\n      jumpi\n        /* \"#utility.yul\":8213:8231   */\n      tag_260\n      tag_162\n      jump\t// in\n    tag_260:\n        /* \"#utility.yul\":8130:8233   */\n    tag_259:\n        /* \"#utility.yul\":8260:8261   */\n      0x01\n        /* \"#utility.yul\":8253:8258   */\n      dup3\n        /* \"#utility.yul\":8249:8262   */\n      add\n        /* \"#utility.yul\":8242:8262   */\n      swap1\n      pop\n        /* \"#utility.yul\":8035:8268   */\n      swap2\n      swap1\n      pop\n      jump\t// out\n        /* \"#utility.yul\":8274:8454   */\n    tag_163:\n        /* \"#utility.yul\":8322:8399   */\n      0x4e487b7100000000000000000000000000000000000000000000000000000000\n        /* \"#utility.yul\":8319:8320   */\n      0x00\n        /* \"#utility.yul\":8312:8400   */\n      mstore\n        /* \"#utility.yul\":8419:8423   */\n      0x12\n        /* \"#utility.yul\":8416:8417   */\n      0x04\n        /* \"#utility.yul\":8409:8424   */\n      mstore\n        /* \"#utility.yul\":8443:8447   */\n      0x24\n        /* \"#utility.yul\":8440:8441   */\n      0x00\n        /* \"#utility.yul\":8433:8448   */\n      revert\n        /* \"#utility.yul\":8460:8636   */\n    tag_68:\n        /* \"#utility.yul\":8492:8493   */\n      0x00\n        /* \"#utility.yul\":8509:8529   */\n      tag_263\n        /* \"#utility.yul\":8527:8528   */\n      dup3\n        /* \"#utility.yul\":8509:8529   */\n      tag_147\n      jump\t// in\n    tag_263:\n        /* \"#utility.yul\":8504:8529   */\n      swap2\n      pop\n        /* \"#utility.yul\":8543:8563   */\n      tag_264\n        /* \"#utility.yul\":8561:8562   */\n      dup4\n        /* \"#utility.yul\":8543:8563   */\n      tag_147\n      jump\t// in\n    tag_264:\n        /* \"#utility.yul\":8538:8563   */\n      swap3\n      pop\n        /* \"#utility.yul\":8582:8583   */\n      dup3\n        /* \"#utility.yul\":8572:8607   */\n      tag_265\n      jumpi\n        /* \"#utility.yul\":8587:8605   */\n      tag_266\n      tag_163\n      jump\t// in\n    tag_266:\n        /* \"#utility.yul\":8572:8607   */\n    tag_265:\n        /* \"#utility.yul\":8628:8629   */\n      dup3\n        /* \"#utility.yul\":8625:8626   */\n      dup3\n        /* \"#utility.yul\":8621:8630   */\n      mod\n        /* \"#utility.yul\":8616:8630   */\n      swap1\n      pop\n        /* \"#utility.yul\":8460:8636   */\n      swap3\n      swap2\n      pop\n      pop\n      jump\t// out\n        /* \"#utility.yul\":8642:8836   */\n    tag_78:\n        /* \"#utility.yul\":8682:8686   */\n      0x00\n        /* \"#utility.yul\":8702:8722   */\n      tag_268\n        /* \"#utility.yul\":8720:8721   */\n      dup3\n        /* \"#utility.yul\":8702:8722   */\n      tag_147\n      jump\t// in\n    tag_268:\n        /* \"#utility.yul\":8697:8722   */\n      swap2\n      pop\n        /* \"#utility.yul\":8736:8756   */\n      tag_269\n        /* \"#utility.yul\":8754:8755   */\n      dup4\n        /* \"#utility.yul\":8736:8756   */\n      tag_147\n      jump\t// in\n    tag_269:\n        /* \"#utility.yul\":8731:8756   */\n      swap3\n      pop\n        /* \"#utility.yul\":8780:8781   */\n      dup3\n        /* \"#utility.yul\":8777:8778   */\n      dup3\n        /* \"#utility.yul\":8773:8782   */\n      sub\n        /* \"#utility.yul\":8765:8782   */\n      swap1\n      pop\n        /* \"#utility.yul\":8804:8805   */\n      dup2\n        /* \"#utility.yul\":8798:8802   */\n      dup2\n        /* \"#utility.yul\":8795:8806   */\n      gt\n        /* \"#utility.yul\":8792:8829   */\n      iszero\n      tag_270\n      jumpi\n        /* \"#utility.yul\":8809:8827   */\n      tag_271\n      tag_162\n      jump\t// in\n    tag_271:\n        /* \"#utility.yul\":8792:8829   */\n    tag_270:\n        /* \"#utility.yul\":8642:8836   */\n      swap3\n      swap2\n      pop\n      pop\n      jump\t// out\n        /* \"#utility.yul\":8842:9033   */\n    tag_93:\n        /* \"#utility.yul\":8882:8885   */\n      0x00\n        /* \"#utility.yul\":8901:8921   */\n      tag_273\n        /* \"#utility.yul\":8919:8920   */\n      dup3\n        /* \"#utility.yul\":8901:8921   */\n      tag_147\n      jump\t// in\n    tag_273:\n        /* \"#utility.yul\":8896:8921   */\n      swap2\n      pop\n        /* \"#utility.yul\":8935:8955   */\n      tag_274\n        /* \"#utility.yul\":8953:8954   */\n      dup4\n        /* \"#utility.yul\":8935:8955   */\n      tag_147\n      jump\t// in\n    tag_274:\n        /* \"#utility.yul\":8930:8955   */\n      swap3\n      pop\n        /* \"#utility.yul\":8978:8979   */\n      dup3\n        /* \"#utility.yul\":8975:8976   */\n      dup3\n        /* \"#utility.yul\":8971:8980   */\n      add\n        /* \"#utility.yul\":8964:8980   */\n      swap1\n      pop\n        /* \"#utility.yul\":8999:9002   */\n      dup1\n        /* \"#utility.yul\":8996:8997   */\n      dup3\n        /* \"#utility.yul\":8993:9003   */\n      gt\n        /* \"#utility.yul\":8990:9026   */\n      iszero\n      tag_275\n      jumpi\n        /* \"#utility.yul\":9006:9024   */\n      tag_276\n      tag_162\n      jump\t// in\n    tag_276:\n        /* \"#utility.yul\":8990:9026   */\n    tag_275:\n        /* \"#utility.yul\":8842:9033   */\n      swap3\n      swap2\n      pop\n      pop\n      jump\t// out\n        /* \"#utility.yul\":9039:9208   */\n    tag_164:\n        /* \"#utility.yul\":9123:9134   */\n      0x00\n        /* \"#utility.yul\":9157:9163   */\n      dup3\n        /* \"#utility.yul\":9152:9155   */\n      dup3\n        /* \"#utility.yul\":9145:9164   */\n      mstore\n        /* \"#utility.yul\":9197:9201   */\n      0x20\n        /* \"#utility.yul\":9192:9195   */\n      dup3\n        /* \"#utility.yul\":9188:9202   */\n      add\n        /* \"#utility.yul\":9173:9202   */\n      swap1\n      pop\n        /* \"#utility.yul\":9039:9208   */\n      swap3\n      swap2\n      pop\n      pop\n      jump\t// out\n        /* \"#utility.yul\":9214:9393   */\n    tag_165:\n        /* \"#utility.yul\":9354:9385   */\n      0x4174206c656173742074776f206e756d62657273207265717569726564000000\n        /* \"#utility.yul\":9350:9351   */\n      0x00\n        /* \"#utility.yul\":9342:9348   */\n      dup3\n        /* \"#utility.yul\":9338:9352   */\n      add\n        /* \"#utility.yul\":9331:9386   */\n      mstore\n        /* \"#utility.yul\":9214:9393   */\n      pop\n      jump\t// out\n        /* \"#utility.yul\":9399:9765   */\n    tag_166:\n        /* \"#utility.yul\":9541:9544   */\n      0x00\n        /* \"#utility.yul\":9562:9629   */\n      tag_280\n        /* \"#utility.yul\":9626:9628   */\n      0x1d\n        /* \"#utility.yul\":9621:9624   */\n      dup4\n        /* \"#utility.yul\":9562:9629   */\n      tag_164\n      jump\t// in\n    tag_280:\n        /* \"#utility.yul\":9555:9629   */\n      swap2\n      pop\n        /* \"#utility.yul\":9638:9731   */\n      tag_281\n        /* \"#utility.yul\":9727:9730   */\n      dup3\n        /* \"#utility.yul\":9638:9731   */\n      tag_165\n      jump\t// in\n    tag_281:\n        /* \"#utility.yul\":9756:9758   */\n      0x20\n        /* \"#utility.yul\":9751:9754   */\n      dup3\n        /* \"#utility.yul\":9747:9759   */\n      add\n        /* \"#utility.yul\":9740:9759   */\n      swap1\n      pop\n        /* \"#utility.yul\":9399:9765   */\n      swap2\n      swap1\n      pop\n      jump\t// out\n        /* \"#utility.yul\":9771:10190   */\n    tag_102:\n        /* \"#utility.yul\":9937:9941   */\n      0x00\n        /* \"#utility.yul\":9975:9977   */\n      0x20\n        /* \"#utility.yul\":9964:9973   */\n      dup3\n        /* \"#utility.yul\":9960:9978   */\n      add\n        /* \"#utility.yul\":9952:9978   */\n      swap1\n      pop\n        /* \"#utility.yul\":10024:10033   */\n      dup2\n        /* \"#utility.yul\":10018:10022   */\n      dup2\n        /* \"#utility.yul\":10014:10034   */\n      sub\n        /* \"#utility.yul\":10010:10011   */\n      0x00\n        /* \"#utility.yul\":9999:10008   */\n      dup4\n        /* \"#utility.yul\":9995:10012   */\n      add\n        /* \"#utility.yul\":9988:10035   */\n      mstore\n        /* \"#utility.yul\":10052:10183   */\n      tag_283\n        /* \"#utility.yul\":10178:10182   */\n      dup2\n        /* \"#utility.yul\":10052:10183   */\n      tag_166\n      jump\t// in\n    tag_283:\n        /* \"#utility.yul\":10044:10183   */\n      swap1\n      pop\n        /* \"#utility.yul\":9771:10190   */\n      swap2\n      swap1\n      pop\n      jump\t// out\n        /* \"#utility.yul\":10196:10367   */\n    tag_167:\n        /* \"#utility.yul\":10336:10359   */\n      0x43616e6e6f7420646976696465206279207a65726f0000000000000000000000\n        /* \"#utility.yul\":10332:10333   */\n      0x00\n        /* \"#utility.yul\":10324:10330   */\n      dup3\n        /* \"#utility.yul\":10320:10334   */\n      add\n        /* \"#utility.yul\":10313:10360   */\n      mstore\n        /* \"#utility.yul\":10196:10367   */\n      pop\n      jump\t// out\n        /* \"#utility.yul\":10373:10739   */\n    tag_168:\n        /* \"#utility.yul\":10515:10518   */\n      0x00\n        /* \"#utility.yul\":10536:10603   */\n      tag_286\n        /* \"#utility.yul\":10600:10602   */\n      0x15\n        /* \"#utility.yul\":10595:10598   */\n      dup4\n        /* \"#utility.yul\":10536:10603   */\n      tag_164\n      jump\t// in\n    tag_286:\n        /* \"#utility.yul\":10529:10603   */\n      swap2\n      pop\n        /* \"#utility.yul\":10612:10705   */\n      tag_287\n        /* \"#utility.yul\":10701:10704   */\n      dup3\n        /* \"#utility.yul\":10612:10705   */\n      tag_167\n      jump\t// in\n    tag_287:\n        /* \"#utility.yul\":10730:10732   */\n      0x20\n        /* \"#utility.yul\":10725:10728   */\n      dup3\n        /* \"#utility.yul\":10721:10733   */\n      add\n        /* \"#utility.yul\":10714:10733   */\n      swap1\n      pop\n        /* \"#utility.yul\":10373:10739   */\n      swap2\n      swap1\n      pop\n      jump\t// out\n        /* \"#utility.yul\":10745:11164   */\n    tag_112:\n        /* \"#utility.yul\":10911:10915   */\n      0x00\n        /* \"#utility.yul\":10949:10951   */\n      0x20\n        /* \"#utility.yul\":10938:10947   */\n      dup3\n        /* \"#utility.yul\":10934:10952   */\n      add\n        /* \"#utility.yul\":10926:10952   */\n      swap1\n      pop\n        /* \"#utility.yul\":10998:11007   */\n      dup2\n        /* \"#utility.yul\":10992:10996   */\n      dup2\n        /* \"#utility.yul\":10988:11008   */\n      sub\n        /* \"#utility.yul\":10984:10985   */\n      0x00\n        /* \"#utility.yul\":10973:10982   */\n      dup4\n        /* \"#utility.yul\":10969:10986   */\n      add\n        /* \"#utility.yul\":10962:11009   */\n      mstore\n        /* \"#utility.yul\":11026:11157   */\n      tag_289\n        /* \"#utility.yul\":11152:11156   */\n      dup2\n        /* \"#utility.yul\":11026:11157   */\n      tag_168\n      jump\t// in\n    tag_289:\n        /* \"#utility.yul\":11018:11157   */\n      swap1\n      pop\n        /* \"#utility.yul\":10745:11164   */\n      swap2\n      swap1\n      pop\n      jump\t// out\n        /* \"#utility.yul\":11170:11355   */\n    tag_116:\n        /* \"#utility.yul\":11210:11211   */\n      0x00\n        /* \"#utility.yul\":11227:11247   */\n      tag_291\n        /* \"#utility.yul\":11245:11246   */\n      dup3\n        /* \"#utility.yul\":11227:11247   */\n      tag_147\n      jump\t// in\n    tag_291:\n        /* \"#utility.yul\":11222:11247   */\n      swap2\n      pop\n        /* \"#utility.yul\":11261:11281   */\n      tag_292\n        /* \"#utility.yul\":11279:11280   */\n      dup4\n        /* \"#utility.yul\":11261:11281   */\n      tag_147\n      jump\t// in\n    tag_292:\n        /* \"#utility.yul\":11256:11281   */\n      swap3\n      pop\n        /* \"#utility.yul\":11300:11301   */\n      dup3\n        /* \"#utility.yul\":11290:11325   */\n      tag_293\n      jumpi\n        /* \"#utility.yul\":11305:11323   */\n      tag_294\n      tag_163\n      jump\t// in\n    tag_294:\n        /* \"#utility.yul\":11290:11325   */\n    tag_293:\n        /* \"#utility.yul\":11347:11348   */\n      dup3\n        /* \"#utility.yul\":11344:11345   */\n      dup3\n        /* \"#utility.yul\":11340:11349   */\n      div\n        /* \"#utility.yul\":11335:11349   */\n      swap1\n      pop\n        /* \"#utility.yul\":11170:11355   */\n      swap3\n      swap2\n      pop\n      pop\n      jump\t// out\n\n    auxdata: 0xa2646970667358221220256e00ab2d057207402f5560fe4299209c2c90e5358c3a69d0677b936f985cc164736f6c63430008120033\n}\n",
				"bytecode": {
					"linkReferences": {},
					"object": "608060405234801561001057600080fd5b50610cc9806100206000396000f3fe608060405234801561001057600080fd5b50600436106100935760003560e01c8063771602f711610066578063771602f7146101585780637b271810146101885780639770cfc5146101b85780639ef028b7146101e8578063b9a038681461021857610093565b8063239de9f4146100985780632a2e1320146100c85780634effac52146100f857806361047ff414610128575b600080fd5b6100b260048036038101906100ad91906107d3565b610248565b6040516100bf919061082b565b60405180910390f35b6100e260048036038101906100dd9190610846565b6102a0565b6040516100ef919061088e565b60405180910390f35b610112600480360381019061010d91906107d3565b6102b8565b60405161011f919061082b565b60405180910390f35b610142600480360381019061013d9190610846565b61032e565b60405161014f9190610967565b60405180910390f35b610172600480360381019061016d9190610989565b61042b565b60405161017f919061082b565b60405180910390f35b6101a2600480360381019061019d91906107d3565b610441565b6040516101af919061082b565b60405180910390f35b6101d260048036038101906101cd9190610846565b61055a565b6040516101df919061082b565b60405180910390f35b61020260048036038101906101fd9190610846565b6105b9565b60405161020f919061088e565b60405180910390f35b610232600480360381019061022d91906107d3565b6105d8565b60405161023f919061082b565b60405180910390f35b6000806001905060005b83518110156102965783818151811061026e5761026d6109c9565b5b6020026020010151826102819190610a27565b9150808061028e90610a69565b915050610252565b5080915050919050565b6000806002836102b09190610ae0565b149050919050565b600080826000815181106102cf576102ce6109c9565b5b602002602001015190506000600190505b8351811015610324578381815181106102fc576102fb6109c9565b5b60200260200101518261030f9190610b11565b9150808061031c90610a69565b9150506102e0565b5080915050919050565b606060008267ffffffffffffffff81111561034c5761034b61065a565b5b60405190808252806020026020018201604052801561037a5781602001602082028036833780820191505090505b509050600080600190508183600081518110610399576103986109c9565b5b60200260200101818152505080836001815181106103ba576103b96109c9565b5b6020026020010181815250506000600290505b8581101561041f57600082846103e39190610b45565b9050808583815181106103f9576103f86109c9565b5b60200260200101818152505082935080925050808061041790610a69565b9150506103cd565b50829350505050919050565b600081836104399190610b45565b905092915050565b6000600282511015610488576040517f08c379a000000000000000000000000000000000000000000000000000000000815260040161047f90610bd6565b60405180910390fd5b60008260008151811061049e5761049d6109c9565b5b602002602001015190506000600190505b83518110156105505760008482815181106104cd576104cc6109c9565b5b602002602001015103610515576040517f08c379a000000000000000000000000000000000000000000000000000000000815260040161050c90610c42565b60405180910390fd5b838181518110610528576105276109c9565b5b60200260200101518261053b9190610c62565b9150808061054890610a69565b9150506104af565b5080915050919050565b6000806105668361032e565b90506000805b82518110156105ae576105998284838151811061058c5761058b6109c9565b5b602002602001015161042b565b915080806105a690610a69565b91505061056c565b508092505050919050565b6000806105c58361055a565b90506105d0816102a0565b915050919050565b6000806000905060005b8351811015610626578381815181106105fe576105fd6109c9565b5b6020026020010151826106119190610b45565b9150808061061e90610a69565b9150506105e2565b5080915050919050565b6000604051905090565b600080fd5b600080fd5b600080fd5b6000601f19601f8301169050919050565b7f4e487b7100000000000000000000000000000000000000000000000000000000600052604160045260246000fd5b61069282610649565b810181811067ffffffffffffffff821117156106b1576106b061065a565b5b80604052505050565b60006106c4610630565b90506106d08282610689565b919050565b600067ffffffffffffffff8211156106f0576106ef61065a565b5b602082029050602081019050919050565b600080fd5b6000819050919050565b61071981610706565b811461072457600080fd5b50565b60008135905061073681610710565b92915050565b600061074f61074a846106d5565b6106ba565b9050808382526020820190506020840283018581111561077257610771610701565b5b835b8181101561079b57806107878882610727565b845260208401935050602081019050610774565b5050509392505050565b600082601f8301126107ba576107b9610644565b5b81356107ca84826020860161073c565b91505092915050565b6000602082840312156107e9576107e861063a565b5b600082013567ffffffffffffffff8111156108075761080661063f565b5b610813848285016107a5565b91505092915050565b61082581610706565b82525050565b6000602082019050610840600083018461081c565b92915050565b60006020828403121561085c5761085b61063a565b5b600061086a84828501610727565b91505092915050565b60008115159050919050565b61088881610873565b82525050565b60006020820190506108a3600083018461087f565b92915050565b600081519050919050565b600082825260208201905092915050565b6000819050602082019050919050565b6108de81610706565b82525050565b60006108f083836108d5565b60208301905092915050565b6000602082019050919050565b6000610914826108a9565b61091e81856108b4565b9350610929836108c5565b8060005b8381101561095a57815161094188826108e4565b975061094c836108fc565b92505060018101905061092d565b5085935050505092915050565b600060208201905081810360008301526109818184610909565b905092915050565b600080604083850312156109a05761099f61063a565b5b60006109ae85828601610727565b92505060206109bf85828601610727565b9150509250929050565b7f4e487b7100000000000000000000000000000000000000000000000000000000600052603260045260246000fd5b7f4e487b7100000000000000000000000000000000000000000000000000000000600052601160045260246000fd5b6000610a3282610706565b9150610a3d83610706565b9250828202610a4b81610706565b91508282048414831517610a6257610a616109f8565b5b5092915050565b6000610a7482610706565b91507fffffffffffffffffffffffffffffffffffffffffffffffffffffffffffffffff8203610aa657610aa56109f8565b5b600182019050919050565b7f4e487b7100000000000000000000000000000000000000000000000000000000600052601260045260246000fd5b6000610aeb82610706565b9150610af683610706565b925082610b0657610b05610ab1565b5b828206905092915050565b6000610b1c82610706565b9150610b2783610706565b9250828203905081811115610b3f57610b3e6109f8565b5b92915050565b6000610b5082610706565b9150610b5b83610706565b9250828201905080821115610b7357610b726109f8565b5b92915050565b600082825260208201905092915050565b7f4174206c656173742074776f206e756d62657273207265717569726564000000600082015250565b6000610bc0601d83610b79565b9150610bcb82610b8a565b602082019050919050565b60006020820190508181036000830152610bef81610bb3565b9050919050565b7f43616e6e6f7420646976696465206279207a65726f0000000000000000000000600082015250565b6000610c2c601583610b79565b9150610c3782610bf6565b602082019050919050565b60006020820190508181036000830152610c5b81610c1f565b9050919050565b6000610c6d82610706565b9150610c7883610706565b925082610c8857610c87610ab1565b5b82820490509291505056fea2646970667358221220256e00ab2d057207402f5560fe4299209c2c90e5358c3a69d0677b936f985cc164736f6c63430008120033",
					"opcodes": "PUSH1 0x80 PUSH1 0x40 MSTORE CALLVALUE DUP1 ISZERO PUSH2 0x10 JUMPI PUSH1 0x0 DUP1 REVERT JUMPDEST POP PUSH2 0xCC9 DUP1 PUSH2 0x20 PUSH1 0x0 CODECOPY PUSH1 0x0 RETURN INVALID PUSH1 0x80 PUSH1 0x40 MSTORE CALLVALUE DUP1 ISZERO PUSH2 0x10 JUMPI PUSH1 0x0 DUP1 REVERT JUMPDEST POP PUSH1 0x4 CALLDATASIZE LT PUSH2 0x93 JUMPI PUSH1 0x0 CALLDATALOAD PUSH1 0xE0 SHR DUP1 PUSH4 0x771602F7 GT PUSH2 0x66 JUMPI DUP1 PUSH4 0x771602F7 EQ PUSH2 0x158 JUMPI DUP1 PUSH4 0x7B271810 EQ PUSH2 0x188 JUMPI DUP1 PUSH4 0x9770CFC5 EQ PUSH2 0x1B8 JUMPI DUP1 PUSH4 0x9EF028B7 EQ PUSH2 0x1E8 JUMPI DUP1 PUSH4 0xB9A03868 EQ PUSH2 0x218 JUMPI PUSH2 0x93 JUMP JUMPDEST DUP1 PUSH4 0x239DE9F4 EQ PUSH2 0x98 JUMPI DUP1 PUSH4 0x2A2E1320 EQ PUSH2 0xC8 JUMPI DUP1 PUSH4 0x4EFFAC52 EQ PUSH2 0xF8 JUMPI DUP1 PUSH4 0x61047FF4 EQ PUSH2 0x128 JUMPI JUMPDEST PUSH1 0x0 DUP1 REVERT JUMPDEST PUSH2 0xB2 PUSH1 0x4 DUP1 CALLDATASIZE SUB DUP2 ADD SWAP1 PUSH2 0xAD SWAP2 SWAP1 PUSH2 0x7D3 JUMP JUMPDEST PUSH2 0x248 JUMP JUMPDEST PUSH1 0x40 MLOAD PUSH2 0xBF SWAP2 SWAP1 PUSH2 0x82B JUMP JUMPDEST PUSH1 0x40 MLOAD DUP1 SWAP2 SUB SWAP1 RETURN JUMPDEST PUSH2 0xE2 PUSH1 0x4 DUP1 CALLDATASIZE SUB DUP2 ADD SWAP1 PUSH2 0xDD SWAP2 SWAP1 PUSH2 0x846 JUMP JUMPDEST PUSH2 0x2A0 JUMP JUMPDEST PUSH1 0x40 MLOAD PUSH2 0xEF SWAP2 SWAP1 PUSH2 0x88E JUMP JUMPDEST PUSH1 0x40 MLOAD DUP1 SWAP2 SUB SWAP1 RETURN JUMPDEST PUSH2 0x112 PUSH1 0x4 DUP1 CALLDATASIZE SUB DUP2 ADD SWAP1 PUSH2 0x10D SWAP2 SWAP1 PUSH2 0x7D3 JUMP JUMPDEST PUSH2 0x2B8 JUMP JUMPDEST PUSH1 0x40 MLOAD PUSH2 0x11F SWAP2 SWAP1 PUSH2 0x82B JUMP JUMPDEST PUSH1 0x40 MLOAD DUP1 SWAP2 SUB SWAP1 RETURN JUMPDEST PUSH2 0x142 PUSH1 0x4 DUP1 CALLDATASIZE SUB DUP2 ADD SWAP1 PUSH2 0x13D SWAP2 SWAP1 PUSH2 0x846 JUMP JUMPDEST PUSH2 0x32E JUMP JUMPDEST PUSH1 0x40 MLOAD PUSH2 0x14F SWAP2 SWAP1 PUSH2 0x967 JUMP JUMPDEST PUSH1 0x40 MLOAD DUP1 SWAP2 SUB SWAP1 RETURN JUMPDEST PUSH2 0x172 PUSH1 0x4 DUP1 CALLDATASIZE SUB DUP2 ADD SWAP1 PUSH2 0x16D SWAP2 SWAP1 PUSH2 0x989 JUMP JUMPDEST PUSH2 0x42B JUMP JUMPDEST PUSH1 0x40 MLOAD PUSH2 0x17F SWAP2 SWAP1 PUSH2 0x82B JUMP JUMPDEST PUSH1 0x40 MLOAD DUP1 SWAP2 SUB SWAP1 RETURN JUMPDEST PUSH2 0x1A2 PUSH1 0x4 DUP1 CALLDATASIZE SUB DUP2 ADD SWAP1 PUSH2 0x19D SWAP2 SWAP1 PUSH2 0x7D3 JUMP JUMPDEST PUSH2 0x441 JUMP JUMPDEST PUSH1 0x40 MLOAD PUSH2 0x1AF SWAP2 SWAP1 PUSH2 0x82B JUMP JUMPDEST PUSH1 0x40 MLOAD DUP1 SWAP2 SUB SWAP1 RETURN JUMPDEST PUSH2 0x1D2 PUSH1 0x4 DUP1 CALLDATASIZE SUB DUP2 ADD SWAP1 PUSH2 0x1CD SWAP2 SWAP1 PUSH2 0x846 JUMP JUMPDEST PUSH2 0x55A JUMP JUMPDEST PUSH1 0x40 MLOAD PUSH2 0x1DF SWAP2 SWAP1 PUSH2 0x82B JUMP JUMPDEST PUSH1 0x40 MLOAD DUP1 SWAP2 SUB SWAP1 RETURN JUMPDEST PUSH2 0x202 PUSH1 0x4 DUP1 CALLDATASIZE SUB DUP2 ADD SWAP1 PUSH2 0x1FD SWAP2 SWAP1 PUSH2 0x846 JUMP JUMPDEST PUSH2 0x5B9 JUMP JUMPDEST PUSH1 0x40 MLOAD PUSH2 0x20F SWAP2 SWAP1 PUSH2 0x88E JUMP JUMPDEST PUSH1 0x40 MLOAD DUP1 SWAP2 SUB SWAP1 RETURN JUMPDEST PUSH2 0x232 PUSH1 0x4 DUP1 CALLDATASIZE SUB DUP2 ADD SWAP1 PUSH2 0x22D SWAP2 SWAP1 PUSH2 0x7D3 JUMP JUMPDEST PUSH2 0x5D8 JUMP JUMPDEST PUSH1 0x40 MLOAD PUSH2 0x23F SWAP2 SWAP1 PUSH2 0x82B JUMP JUMPDEST PUSH1 0x40 MLOAD DUP1 SWAP2 SUB SWAP1 RETURN JUMPDEST PUSH1 0x0 DUP1 PUSH1 0x1 SWAP1 POP PUSH1 0x0 JUMPDEST DUP4 MLOAD DUP2 LT ISZERO PUSH2 0x296 JUMPI DUP4 DUP2 DUP2 MLOAD DUP2 LT PUSH2 0x26E JUMPI PUSH2 0x26D PUSH2 0x9C9 JUMP JUMPDEST JUMPDEST PUSH1 0x20 MUL PUSH1 0x20 ADD ADD MLOAD DUP3 PUSH2 0x281 SWAP2 SWAP1 PUSH2 0xA27 JUMP JUMPDEST SWAP2 POP DUP1 DUP1 PUSH2 0x28E SWAP1 PUSH2 0xA69 JUMP JUMPDEST SWAP2 POP POP PUSH2 0x252 JUMP JUMPDEST POP DUP1 SWAP2 POP POP SWAP2 SWAP1 POP JUMP JUMPDEST PUSH1 0x0 DUP1 PUSH1 0x2 DUP4 PUSH2 0x2B0 SWAP2 SWAP1 PUSH2 0xAE0 JUMP JUMPDEST EQ SWAP1 POP SWAP2 SWAP1 POP JUMP JUMPDEST PUSH1 0x0 DUP1 DUP3 PUSH1 0x0 DUP2 MLOAD DUP2 LT PUSH2 0x2CF JUMPI PUSH2 0x2CE PUSH2 0x9C9 JUMP JUMPDEST JUMPDEST PUSH1 0x20 MUL PUSH1 0x20 ADD ADD MLOAD SWAP1 POP PUSH1 0x0 PUSH1 0x1 SWAP1 POP JUMPDEST DUP4 MLOAD DUP2 LT ISZERO PUSH2 0x324 JUMPI DUP4 DUP2 DUP2 MLOAD DUP2 LT PUSH2 0x2FC JUMPI PUSH2 0x2FB PUSH2 0x9C9 JUMP JUMPDEST JUMPDEST PUSH1 0x20 MUL PUSH1 0x20 ADD ADD MLOAD DUP3 PUSH2 0x30F SWAP2 SWAP1 PUSH2 0xB11 JUMP JUMPDEST SWAP2 POP DUP1 DUP1 PUSH2 0x31C SWAP1 PUSH2 0xA69 JUMP JUMPDEST SWAP2 POP POP PUSH2 0x2E0 JUMP JUMPDEST POP DUP1 SWAP2 POP POP SWAP2 SWAP1 POP JUMP JUMPDEST PUSH1 0x60 PUSH1 0x0 DUP3 PUSH8 0xFFFFFFFFFFFFFFFF DUP2 GT ISZERO PUSH2 0x34C JUMPI PUSH2 0x34B PUSH2 0x65A JUMP JUMPDEST JUMPDEST PUSH1 0x40 MLOAD SWAP1 DUP1 DUP3 MSTORE DUP1 PUSH1 0x20 MUL PUSH1 0x20 ADD DUP3 ADD PUSH1 0x40 MSTORE DUP1 ISZERO PUSH2 0x37A JUMPI DUP2 PUSH1 0x20 ADD PUSH1 0x20 DUP3 MUL DUP1 CALLDATASIZE DUP4 CALLDATACOPY DUP1 DUP3 ADD SWAP2 POP POP SWAP1 POP JUMPDEST POP SWAP1 POP PUSH1 0x0 DUP1 PUSH1 0x1 SWAP1 POP DUP2 DUP4 PUSH1 0x0 DUP2 MLOAD DUP2 LT PUSH2 0x399 JUMPI PUSH2 0x398 PUSH2 0x9C9 JUMP JUMPDEST JUMPDEST PUSH1 0x20 MUL PUSH1 0x20 ADD ADD DUP2 DUP2 MSTORE POP POP DUP1 DUP4 PUSH1 0x1 DUP2 MLOAD DUP2 LT PUSH2 0x3BA JUMPI PUSH2 0x3B9 PUSH2 0x9C9 JUMP JUMPDEST JUMPDEST PUSH1 0x20 MUL PUSH1 0x20 ADD ADD DUP2 DUP2 MSTORE POP POP PUSH1 0x0 PUSH1 0x2 SWAP1 POP JUMPDEST DUP6 DUP2 LT ISZERO PUSH2 0x41F JUMPI PUSH1 0x0 DUP3 DUP5 PUSH2 0x3E3 SWAP2 SWAP1 PUSH2 0xB45 JUMP JUMPDEST SWAP1 POP DUP1 DUP6 DUP4 DUP2 MLOAD DUP2 LT PUSH2 0x3F9 JUMPI PUSH2 0x3F8 PUSH2 0x9C9 JUMP JUMPDEST JUMPDEST PUSH1 0x20 MUL PUSH1 0x20 ADD ADD DUP2 DUP2 MSTORE POP POP DUP3 SWAP4 POP DUP1 SWAP3 POP POP DUP1 DUP1 PUSH2 0x417 SWAP1 PUSH2 0xA69 JUMP JUMPDEST SWAP2 POP POP PUSH2 0x3CD JUMP JUMPDEST POP DUP3 SWAP4 POP POP POP POP SWAP2 SWAP1 POP JUMP JUMPDEST PUSH1 0x0 DUP2 DUP4 PUSH2 0x439 SWAP2 SWAP1 PUSH2 0xB45 JUMP JUMPDEST SWAP1 POP SWAP3 SWAP2 POP POP JUMP JUMPDEST PUSH1 0x0 PUSH1 0x2 DUP3 MLOAD LT ISZERO PUSH2 0x488 JUMPI PUSH1 0x40 MLOAD PUSH32 0x8C379A000000000000000000000000000000000000000000000000000000000 DUP2 MSTORE PUSH1 0x4 ADD PUSH2 0x47F SWAP1 PUSH2 0xBD6 JUMP JUMPDEST PUSH1 0x40 MLOAD DUP1 SWAP2 SUB SWAP1 REVERT JUMPDEST PUSH1 0x0 DUP3 PUSH1 0x0 DUP2 MLOAD DUP2 LT PUSH2 0x49E JUMPI PUSH2 0x49D PUSH2 0x9C9 JUMP JUMPDEST JUMPDEST PUSH1 0x20 MUL PUSH1 0x20 ADD ADD MLOAD SWAP1 POP PUSH1 0x0 PUSH1 0x1 SWAP1 POP JUMPDEST DUP4 MLOAD DUP2 LT ISZERO PUSH2 0x550 JUMPI PUSH1 0x0 DUP5 DUP3 DUP2 MLOAD DUP2 LT PUSH2 0x4CD JUMPI PUSH2 0x4CC PUSH2 0x9C9 JUMP JUMPDEST JUMPDEST PUSH1 0x20 MUL PUSH1 0x20 ADD ADD MLOAD SUB PUSH2 0x515 JUMPI PUSH1 0x40 MLOAD PUSH32 0x8C379A000000000000000000000000000000000000000000000000000000000 DUP2 MSTORE PUSH1 0x4 ADD PUSH2 0x50C SWAP1 PUSH2 0xC42 JUMP JUMPDEST PUSH1 0x40 MLOAD DUP1 SWAP2 SUB SWAP1 REVERT JUMPDEST DUP4 DUP2 DUP2 MLOAD DUP2 LT PUSH2 0x528 JUMPI PUSH2 0x527 PUSH2 0x9C9 JUMP JUMPDEST JUMPDEST PUSH1 0x20 MUL PUSH1 0x20 ADD ADD MLOAD DUP3 PUSH2 0x53B SWAP2 SWAP1 PUSH2 0xC62 JUMP JUMPDEST SWAP2 POP DUP1 DUP1 PUSH2 0x548 SWAP1 PUSH2 0xA69 JUMP JUMPDEST SWAP2 POP POP PUSH2 0x4AF JUMP JUMPDEST POP DUP1 SWAP2 POP POP SWAP2 SWAP1 POP JUMP JUMPDEST PUSH1 0x0 DUP1 PUSH2 0x566 DUP4 PUSH2 0x32E JUMP JUMPDEST SWAP1 POP PUSH1 0x0 DUP1 JUMPDEST DUP3 MLOAD DUP2 LT ISZERO PUSH2 0x5AE JUMPI PUSH2 0x599 DUP3 DUP5 DUP4 DUP2 MLOAD DUP2 LT PUSH2 0x58C JUMPI PUSH2 0x58B PUSH2 0x9C9 JUMP JUMPDEST JUMPDEST PUSH1 0x20 MUL PUSH1 0x20 ADD ADD MLOAD PUSH2 0x42B JUMP JUMPDEST SWAP2 POP DUP1 DUP1 PUSH2 0x5A6 SWAP1 PUSH2 0xA69 JUMP JUMPDEST SWAP2 POP POP PUSH2 0x56C JUMP JUMPDEST POP DUP1 SWAP3 POP POP POP SWAP2 SWAP1 POP JUMP JUMPDEST PUSH1 0x0 DUP1 PUSH2 0x5C5 DUP4 PUSH2 0x55A JUMP JUMPDEST SWAP1 POP PUSH2 0x5D0 DUP2 PUSH2 0x2A0 JUMP JUMPDEST SWAP2 POP POP SWAP2 SWAP1 POP JUMP JUMPDEST PUSH1 0x0 DUP1 PUSH1 0x0 SWAP1 POP PUSH1 0x0 JUMPDEST DUP4 MLOAD DUP2 LT ISZERO PUSH2 0x626 JUMPI DUP4 DUP2 DUP2 MLOAD DUP2 LT PUSH2 0x5FE JUMPI PUSH2 0x5FD PUSH2 0x9C9 JUMP JUMPDEST JUMPDEST PUSH1 0x20 MUL PUSH1 0x20 ADD ADD MLOAD DUP3 PUSH2 0x611 SWAP2 SWAP1 PUSH2 0xB45 JUMP JUMPDEST SWAP2 POP DUP1 DUP1 PUSH2 0x61E SWAP1 PUSH2 0xA69 JUMP JUMPDEST SWAP2 POP POP PUSH2 0x5E2 JUMP JUMPDEST POP DUP1 SWAP2 POP POP SWAP2 SWAP1 POP JUMP JUMPDEST PUSH1 0x0 PUSH1 0x40 MLOAD SWAP1 POP SWAP1 JUMP JUMPDEST PUSH1 0x0 DUP1 REVERT JUMPDEST PUSH1 0x0 DUP1 REVERT JUMPDEST PUSH1 0x0 DUP1 REVERT JUMPDEST PUSH1 0x0 PUSH1 0x1F NOT PUSH1 0x1F DUP4 ADD AND SWAP1 POP SWAP2 SWAP1 POP JUMP JUMPDEST PUSH32 0x4E487B7100000000000000000000000000000000000000000000000000000000 PUSH1 0x0 MSTORE PUSH1 0x41 PUSH1 0x4 MSTORE PUSH1 0x24 PUSH1 0x0 REVERT JUMPDEST PUSH2 0x692 DUP3 PUSH2 0x649 JUMP JUMPDEST DUP2 ADD DUP2 DUP2 LT PUSH8 0xFFFFFFFFFFFFFFFF DUP3 GT OR ISZERO PUSH2 0x6B1 JUMPI PUSH2 0x6B0 PUSH2 0x65A JUMP JUMPDEST JUMPDEST DUP1 PUSH1 0x40 MSTORE POP POP POP JUMP JUMPDEST PUSH1 0x0 PUSH2 0x6C4 PUSH2 0x630 JUMP JUMPDEST SWAP1 POP PUSH2 0x6D0 DUP3 DUP3 PUSH2 0x689 JUMP JUMPDEST SWAP2 SWAP1 POP JUMP JUMPDEST PUSH1 0x0 PUSH8 0xFFFFFFFFFFFFFFFF DUP3 GT ISZERO PUSH2 0x6F0 JUMPI PUSH2 0x6EF PUSH2 0x65A JUMP JUMPDEST JUMPDEST PUSH1 0x20 DUP3 MUL SWAP1 POP PUSH1 0x20 DUP2 ADD SWAP1 POP SWAP2 SWAP1 POP JUMP JUMPDEST PUSH1 0x0 DUP1 REVERT JUMPDEST PUSH1 0x0 DUP2 SWAP1 POP SWAP2 SWAP1 POP JUMP JUMPDEST PUSH2 0x719 DUP2 PUSH2 0x706 JUMP JUMPDEST DUP2 EQ PUSH2 0x724 JUMPI PUSH1 0x0 DUP1 REVERT JUMPDEST POP JUMP JUMPDEST PUSH1 0x0 DUP2 CALLDATALOAD SWAP1 POP PUSH2 0x736 DUP2 PUSH2 0x710 JUMP JUMPDEST SWAP3 SWAP2 POP POP JUMP JUMPDEST PUSH1 0x0 PUSH2 0x74F PUSH2 0x74A DUP5 PUSH2 0x6D5 JUMP JUMPDEST PUSH2 0x6BA JUMP JUMPDEST SWAP1 POP DUP1 DUP4 DUP3 MSTORE PUSH1 0x20 DUP3 ADD SWAP1 POP PUSH1 0x20 DUP5 MUL DUP4 ADD DUP6 DUP2 GT ISZERO PUSH2 0x772 JUMPI PUSH2 0x771 PUSH2 0x701 JUMP JUMPDEST JUMPDEST DUP4 JUMPDEST DUP2 DUP2 LT ISZERO PUSH2 0x79B JUMPI DUP1 PUSH2 0x787 DUP9 DUP3 PUSH2 0x727 JUMP JUMPDEST DUP5 MSTORE PUSH1 0x20 DUP5 ADD SWAP4 POP POP PUSH1 0x20 DUP2 ADD SWAP1 POP PUSH2 0x774 JUMP JUMPDEST POP POP POP SWAP4 SWAP3 POP POP POP JUMP JUMPDEST PUSH1 0x0 DUP3 PUSH1 0x1F DUP4 ADD SLT PUSH2 0x7BA JUMPI PUSH2 0x7B9 PUSH2 0x644 JUMP JUMPDEST JUMPDEST DUP2 CALLDATALOAD PUSH2 0x7CA DUP5 DUP3 PUSH1 0x20 DUP7 ADD PUSH2 0x73C JUMP JUMPDEST SWAP2 POP POP SWAP3 SWAP2 POP POP JUMP JUMPDEST PUSH1 0x0 PUSH1 0x20 DUP3 DUP5 SUB SLT ISZERO PUSH2 0x7E9 JUMPI PUSH2 0x7E8 PUSH2 0x63A JUMP JUMPDEST JUMPDEST PUSH1 0x0 DUP3 ADD CALLDATALOAD PUSH8 0xFFFFFFFFFFFFFFFF DUP2 GT ISZERO PUSH2 0x807 JUMPI PUSH2 0x806 PUSH2 0x63F JUMP JUMPDEST JUMPDEST PUSH2 0x813 DUP5 DUP3 DUP6 ADD PUSH2 0x7A5 JUMP JUMPDEST SWAP2 POP POP SWAP3 SWAP2 POP POP JUMP JUMPDEST PUSH2 0x825 DUP2 PUSH2 0x706 JUMP JUMPDEST DUP3 MSTORE POP POP JUMP JUMPDEST PUSH1 0x0 PUSH1 0x20 DUP3 ADD SWAP1 POP PUSH2 0x840 PUSH1 0x0 DUP4 ADD DUP5 PUSH2 0x81C JUMP JUMPDEST SWAP3 SWAP2 POP POP JUMP JUMPDEST PUSH1 0x0 PUSH1 0x20 DUP3 DUP5 SUB SLT ISZERO PUSH2 0x85C JUMPI PUSH2 0x85B PUSH2 0x63A JUMP JUMPDEST JUMPDEST PUSH1 0x0 PUSH2 0x86A DUP5 DUP3 DUP6 ADD PUSH2 0x727 JUMP JUMPDEST SWAP2 POP POP SWAP3 SWAP2 POP POP JUMP JUMPDEST PUSH1 0x0 DUP2 ISZERO ISZERO SWAP1 POP SWAP2 SWAP1 POP JUMP JUMPDEST PUSH2 0x888 DUP2 PUSH2 0x873 JUMP JUMPDEST DUP3 MSTORE POP POP JUMP JUMPDEST PUSH1 0x0 PUSH1 0x20 DUP3 ADD SWAP1 POP PUSH2 0x8A3 PUSH1 0x0 DUP4 ADD DUP5 PUSH2 0x87F JUMP JUMPDEST SWAP3 SWAP2 POP POP JUMP JUMPDEST PUSH1 0x0 DUP2 MLOAD SWAP1 POP SWAP2 SWAP1 POP JUMP JUMPDEST PUSH1 0x0 DUP3 DUP3 MSTORE PUSH1 0x20 DUP3 ADD SWAP1 POP SWAP3 SWAP2 POP POP JUMP JUMPDEST PUSH1 0x0 DUP2 SWAP1 POP PUSH1 0x20 DUP3 ADD SWAP1 POP SWAP2 SWAP1 POP JUMP JUMPDEST PUSH2 0x8DE DUP2 PUSH2 0x706 JUMP JUMPDEST DUP3 MSTORE POP POP JUMP JUMPDEST PUSH1 0x0 PUSH2 0x8F0 DUP4 DUP4 PUSH2 0x8D5 JUMP JUMPDEST PUSH1 0x20 DUP4 ADD SWAP1 POP SWAP3 SWAP2 POP POP JUMP JUMPDEST PUSH1 0x0 PUSH1 0x20 DUP3 ADD SWAP1 POP SWAP2 SWAP1 POP JUMP JUMPDEST PUSH1 0x0 PUSH2 0x914 DUP3 PUSH2 0x8A9 JUMP JUMPDEST PUSH2 0x91E DUP2 DUP6 PUSH2 0x8B4 JUMP JUMPDEST SWAP4 POP PUSH2 0x929 DUP4 PUSH2 0x8C5 JUMP JUMPDEST DUP1 PUSH1 0x0 JUMPDEST DUP4 DUP2 LT ISZERO PUSH2 0x95A JUMPI DUP2 MLOAD PUSH2 0x941 DUP9 DUP3 PUSH2 0x8E4 JUMP JUMPDEST SWAP8 POP PUSH2 0x94C DUP4 PUSH2 0x8FC JUMP JUMPDEST SWAP3 POP POP PUSH1 0x1 DUP2 ADD SWAP1 POP PUSH2 0x92D JUMP JUMPDEST POP DUP6 SWAP4 POP POP POP POP SWAP3 SWAP2 POP POP JUMP JUMPDEST PUSH1 0x0 PUSH1 0x20 DUP3 ADD SWAP1 POP DUP2 DUP2 SUB PUSH1 0x0 DUP4 ADD MSTORE PUSH2 0x981 DUP2 DUP5 PUSH2 0x909 JUMP JUMPDEST SWAP1 POP SWAP3 SWAP2 POP POP JUMP JUMPDEST PUSH1 0x0 DUP1 PUSH1 0x40 DUP4 DUP6 SUB SLT ISZERO PUSH2 0x9A0 JUMPI PUSH2 0x99F PUSH2 0x63A JUMP JUMPDEST JUMPDEST PUSH1 0x0 PUSH2 0x9AE DUP6 DUP3 DUP7 ADD PUSH2 0x727 JUMP JUMPDEST SWAP3 POP POP PUSH1 0x20 PUSH2 0x9BF DUP6 DUP3 DUP7 ADD PUSH2 0x727 JUMP JUMPDEST SWAP2 POP POP SWAP3 POP SWAP3 SWAP1 POP JUMP JUMPDEST PUSH32 0x4E487B7100000000000000000000000000000000000000000000000000000000 PUSH1 0x0 MSTORE PUSH1 0x32 PUSH1 0x4 MSTORE PUSH1 0x24 PUSH1 0x0 REVERT JUMPDEST PUSH32 0x4E487B7100000000000000000000000000000000000000000000000000000000 PUSH1 0x0 MSTORE PUSH1 0x11 PUSH1 0x4 MSTORE PUSH1 0x24 PUSH1 0x0 REVERT JUMPDEST PUSH1 0x0 PUSH2 0xA32 DUP3 PUSH2 0x706 JUMP JUMPDEST SWAP2 POP PUSH2 0xA3D DUP4 PUSH2 0x706 JUMP JUMPDEST SWAP3 POP DUP3 DUP3 MUL PUSH2 0xA4B DUP2 PUSH2 0x706 JUMP JUMPDEST SWAP2 POP DUP3 DUP3 DIV DUP5 EQ DUP4 ISZERO OR PUSH2 0xA62 JUMPI PUSH2 0xA61 PUSH2 0x9F8 JUMP JUMPDEST JUMPDEST POP SWAP3 SWAP2 POP POP JUMP JUMPDEST PUSH1 0x0 PUSH2 0xA74 DUP3 PUSH2 0x706 JUMP JUMPDEST SWAP2 POP PUSH32 0xFFFFFFFFFFFFFFFFFFFFFFFFFFFFFFFFFFFFFFFFFFFFFFFFFFFFFFFFFFFFFFFF DUP3 SUB PUSH2 0xAA6 JUMPI PUSH2 0xAA5 PUSH2 0x9F8 JUMP JUMPDEST JUMPDEST PUSH1 0x1 DUP3 ADD SWAP1 POP SWAP2 SWAP1 POP JUMP JUMPDEST PUSH32 0x4E487B7100000000000000000000000000000000000000000000000000000000 PUSH1 0x0 MSTORE PUSH1 0x12 PUSH1 0x4 MSTORE PUSH1 0x24 PUSH1 0x0 REVERT JUMPDEST PUSH1 0x0 PUSH2 0xAEB DUP3 PUSH2 0x706 JUMP JUMPDEST SWAP2 POP PUSH2 0xAF6 DUP4 PUSH2 0x706 JUMP JUMPDEST SWAP3 POP DUP3 PUSH2 0xB06 JUMPI PUSH2 0xB05 PUSH2 0xAB1 JUMP JUMPDEST JUMPDEST DUP3 DUP3 MOD SWAP1 POP SWAP3 SWAP2 POP POP JUMP JUMPDEST PUSH1 0x0 PUSH2 0xB1C DUP3 PUSH2 0x706 JUMP JUMPDEST SWAP2 POP PUSH2 0xB27 DUP4 PUSH2 0x706 JUMP JUMPDEST SWAP3 POP DUP3 DUP3 SUB SWAP1 POP DUP2 DUP2 GT ISZERO PUSH2 0xB3F JUMPI PUSH2 0xB3E PUSH2 0x9F8 JUMP JUMPDEST JUMPDEST SWAP3 SWAP2 POP POP JUMP JUMPDEST PUSH1 0x0 PUSH2 0xB50 DUP3 PUSH2 0x706 JUMP JUMPDEST SWAP2 POP PUSH2 0xB5B DUP4 PUSH2 0x706 JUMP JUMPDEST SWAP3 POP DUP3 DUP3 ADD SWAP1 POP DUP1 DUP3 GT ISZERO PUSH2 0xB73 JUMPI PUSH2 0xB72 PUSH2 0x9F8 JUMP JUMPDEST JUMPDEST SWAP3 SWAP2 POP POP JUMP JUMPDEST PUSH1 0x0 DUP3 DUP3 MSTORE PUSH1 0x20 DUP3 ADD SWAP1 POP SWAP3 SWAP2 POP POP JUMP JUMPDEST PUSH32 0x4174206C656173742074776F206E756D62657273207265717569726564000000 PUSH1 0x0 DUP3 ADD MSTORE POP JUMP JUMPDEST PUSH1 0x0 PUSH2 0xBC0 PUSH1 0x1D DUP4 PUSH2 0xB79 JUMP JUMPDEST SWAP2 POP PUSH2 0xBCB DUP3 PUSH2 0xB8A JUMP JUMPDEST PUSH1 0x20 DUP3 ADD SWAP1 POP SWAP2 SWAP1 POP JUMP JUMPDEST PUSH1 0x0 PUSH1 0x20 DUP3 ADD SWAP1 POP DUP2 DUP2 SUB PUSH1 0x0 DUP4 ADD MSTORE PUSH2 0xBEF DUP2 PUSH2 0xBB3 JUMP JUMPDEST SWAP1 POP SWAP2 SWAP1 POP JUMP JUMPDEST PUSH32 0x43616E6E6F7420646976696465206279207A65726F0000000000000000000000 PUSH1 0x0 DUP3 ADD MSTORE POP JUMP JUMPDEST PUSH1 0x0 PUSH2 0xC2C PUSH1 0x15 DUP4 PUSH2 0xB79 JUMP JUMPDEST SWAP2 POP PUSH2 0xC37 DUP3 PUSH2 0xBF6 JUMP JUMPDEST PUSH1 0x20 DUP3 ADD SWAP1 POP SWAP2 SWAP1 POP JUMP JUMPDEST PUSH1 0x0 PUSH1 0x20 DUP3 ADD SWAP1 POP DUP2 DUP2 SUB PUSH1 0x0 DUP4 ADD MSTORE PUSH2 0xC5B DUP2 PUSH2 0xC1F JUMP JUMPDEST SWAP1 POP SWAP2 SWAP1 POP JUMP JUMPDEST PUSH1 0x0 PUSH2 0xC6D DUP3 PUSH2 0x706 JUMP JUMPDEST SWAP2 POP PUSH2 0xC78 DUP4 PUSH2 0x706 JUMP JUMPDEST SWAP3 POP DUP3 PUSH2 0xC88 JUMPI PUSH2 0xC87 PUSH2 0xAB1 JUMP JUMPDEST JUMPDEST DUP3 DUP3 DIV SWAP1 POP SWAP3 SWAP2 POP POP JUMP INVALID LOG2 PUSH5 0x6970667358 0x22 SLT KECCAK256 0x25 PUSH15 0xAB2D057207402F5560FE4299209C 0x2C SWAP1 0xE5 CALLDATALOAD DUP13 GASPRICE PUSH10 0xD0677B936F985CC16473 PUSH16 0x6C634300081200330000000000000000 "
				},
				"gasEstimates": {
					"creation": {
						"codeDepositCost": "654600",
						"executionCost": "689",
						"totalCost": "655289"
					},
					"external": {
						"add(uint256,uint256)": "infinite",
						"addAndCheckEvenOdd(uint256)": "infinite",
						"addFibonacci(uint256)": "infinite",
						"addNumbers(uint256[])": "infinite",
						"divideNumbers(uint256[])": "infinite",
						"fibonacci(uint256)": "infinite",
						"isEven(uint256)": "infinite",
						"multiply(uint256[])": "infinite",
						"subtractNumbers(uint256[])": "infinite"
					}
				},
				"methodIdentifiers": {
					"add(uint256,uint256)": "771602f7",
					"addAndCheckEvenOdd(uint256)": "9ef028b7",
					"addFibonacci(uint256)": "9770cfc5",
					"addNumbers(uint256[])": "b9a03868",
					"divideNumbers(uint256[])": "7b271810",
					"fibonacci(uint256)": "61047ff4",
					"isEven(uint256)": "2a2e1320",
					"multiply(uint256[])": "239de9f4",
					"subtractNumbers(uint256[])": "4effac52"
				}
			},
			"storageLayout": {
				"storage": [],
				"types": null
			},
			"userdoc": {
				"kind": "user",
				"methods": {},
				"version": 1
			}
		}
	}
}