{
	"data": {
		"bytecode": {
			"linkReferences": {},
			"object": "608060405234801561001057600080fd5b50610d0c806100206000396000f3fe608060405234801561001057600080fd5b50600436106100935760003560e01c8063771602f711610066578063771602f7146101585780637b271810146101885780639770cfc5146101b85780639ef028b7146101e8578063b9a038681461021857610093565b8063239de9f4146100985780632a2e1320146100c85780634effac52146100f857806361047ff414610128575b600080fd5b6100b260048036038101906100ad91906106e4565b610248565b6040516100bf9190610900565b60405180910390f35b6100e260048036038101906100dd919061072d565b6102a0565b6040516100ef91906108a5565b60405180910390f35b610112600480360381019061010d91906106e4565b6102b8565b60405161011f9190610900565b60405180910390f35b610142600480360381019061013d919061072d565b61032e565b60405161014f9190610883565b60405180910390f35b610172600480360381019061016d919061075a565b61042b565b60405161017f9190610900565b60405180910390f35b6101a2600480360381019061019d91906106e4565b610441565b6040516101af9190610900565b60405180910390f35b6101d260048036038101906101cd919061072d565b61055b565b6040516101df9190610900565b60405180910390f35b61020260048036038101906101fd919061072d565b6105ba565b60405161020f91906108a5565b60405180910390f35b610232600480360381019061022d91906106e4565b6105d9565b60405161023f9190610900565b60405180910390f35b6000806001905060005b83518110156102965783818151811061026e5761026d610bea565b5b6020026020010151826102819190610a3d565b9150808061028e90610b12565b915050610252565b5080915050919050565b6000806002836102b09190610b5b565b149050919050565b600080826000815181106102cf576102ce610bea565b5b602002602001015190506000600190505b8351811015610324578381815181106102fc576102fb610bea565b5b60200260200101518261030f9190610a97565b9150808061031c90610b12565b9150506102e0565b5080915050919050565b606060008267ffffffffffffffff81111561034c5761034b610c19565b5b60405190808252806020026020018201604052801561037a5781602001602082028036833780820191505090505b50905060008060019050818360008151811061039957610398610bea565b5b60200260200101818152505080836001815181106103ba576103b9610bea565b5b6020026020010181815250506000600290505b8581101561041f57600082846103e391906109b6565b9050808583815181106103f9576103f8610bea565b5b60200260200101818152505082935080925050808061041790610b12565b9150506103cd565b50829350505050919050565b6000818361043991906109b6565b905092915050565b6000600282511015610488576040517f08c379a000000000000000000000000000000000000000000000000000000000815260040161047f906108e0565b60405180910390fd5b60008260008151811061049e5761049d610bea565b5b602002602001015190506000600190505b83518110156105515760008482815181106104cd576104cc610bea565b5b60200260200101511415610516576040517f08c379a000000000000000000000000000000000000000000000000000000000815260040161050d906108c0565b60405180910390fd5b83818151811061052957610528610bea565b5b60200260200101518261053c9190610a0c565b9150808061054990610b12565b9150506104af565b5080915050919050565b6000806105678361032e565b90506000805b82518110156105af5761059a8284838151811061058d5761058c610bea565b5b602002602001015161042b565b915080806105a790610b12565b91505061056d565b508092505050919050565b6000806105c68361055b565b90506105d1816102a0565b915050919050565b6000806000905060005b8351811015610627578381815181106105ff576105fe610bea565b5b60200260200101518261061291906109b6565b9150808061061f90610b12565b9150506105e3565b5080915050919050565b600061064461063f84610940565b61091b565b9050808382526020820190508285602086028201111561066757610666610c4d565b5b60005b85811015610697578161067d88826106cf565b84526020840193506020830192505060018101905061066a565b5050509392505050565b600082601f8301126106b6576106b5610c48565b5b81356106c6848260208601610631565b91505092915050565b6000813590506106de81610cbf565b92915050565b6000602082840312156106fa576106f9610c57565b5b600082013567ffffffffffffffff81111561071857610717610c52565b5b610724848285016106a1565b91505092915050565b60006020828403121561074357610742610c57565b5b6000610751848285016106cf565b91505092915050565b6000806040838503121561077157610770610c57565b5b600061077f858286016106cf565b9250506020610790858286016106cf565b9150509250929050565b60006107a68383610865565b60208301905092915050565b60006107bd8261097c565b6107c78185610994565b93506107d28361096c565b8060005b838110156108035781516107ea888261079a565b97506107f583610987565b9250506001810190506107d6565b5085935050505092915050565b61081981610acb565b82525050565b600061082c6015836109a5565b915061083782610c6d565b602082019050919050565b600061084f601d836109a5565b915061085a82610c96565b602082019050919050565b61086e81610ad7565b82525050565b61087d81610ad7565b82525050565b6000602082019050818103600083015261089d81846107b2565b905092915050565b60006020820190506108ba6000830184610810565b92915050565b600060208201905081810360008301526108d98161081f565b9050919050565b600060208201905081810360008301526108f981610842565b9050919050565b60006020820190506109156000830184610874565b92915050565b6000610925610936565b90506109318282610ae1565b919050565b6000604051905090565b600067ffffffffffffffff82111561095b5761095a610c19565b5b602082029050602081019050919050565b6000819050602082019050919050565b600081519050919050565b6000602082019050919050565b600082825260208201905092915050565b600082825260208201905092915050565b60006109c182610ad7565b91506109cc83610ad7565b9250827fffffffffffffffffffffffffffffffffffffffffffffffffffffffffffffffff03821115610a0157610a00610b8c565b5b828201905092915050565b6000610a1782610ad7565b9150610a2283610ad7565b925082610a3257610a31610bbb565b5b828204905092915050565b6000610a4882610ad7565b9150610a5383610ad7565b9250817fffffffffffffffffffffffffffffffffffffffffffffffffffffffffffffffff0483118215151615610a8c57610a8b610b8c565b5b828202905092915050565b6000610aa282610ad7565b9150610aad83610ad7565b925082821015610ac057610abf610b8c565b5b828203905092915050565b60008115159050919050565b6000819050919050565b610aea82610c5c565b810181811067ffffffffffffffff82111715610b0957610b08610c19565b5b80604052505050565b6000610b1d82610ad7565b91507fffffffffffffffffffffffffffffffffffffffffffffffffffffffffffffffff821415610b5057610b4f610b8c565b5b600182019050919050565b6000610b6682610ad7565b9150610b7183610ad7565b925082610b8157610b80610bbb565b5b828206905092915050565b7f4e487b7100000000000000000000000000000000000000000000000000000000600052601160045260246000fd5b7f4e487b7100000000000000000000000000000000000000000000000000000000600052601260045260246000fd5b7f4e487b7100000000000000000000000000000000000000000000000000000000600052603260045260246000fd5b7f4e487b7100000000000000000000000000000000000000000000000000000000600052604160045260246000fd5b600080fd5b600080fd5b600080fd5b600080fd5b6000601f19601f8301169050919050565b7f43616e6e6f7420646976696465206279207a65726f0000000000000000000000600082015250565b7f4174206c656173742074776f206e756d62657273207265717569726564000000600082015250565b610cc881610ad7565b8114610cd357600080fd5b5056fea2646970667358221220f4cf27c64ad78490bcb0b98f9f61bc8ae5972f8bd189142ff859b3f80fea285364736f6c63430008060033",
			"opcodes": "PUSH1 0x80 PUSH1 0x40 MSTORE CALLVALUE DUP1 ISZERO PUSH2 0x10 JUMPI PUSH1 0x0 DUP1 REVERT JUMPDEST POP PUSH2 0xD0C DUP1 PUSH2 0x20 PUSH1 0x0 CODECOPY PUSH1 0x0 RETURN INVALID PUSH1 0x80 PUSH1 0x40 MSTORE CALLVALUE DUP1 ISZERO PUSH2 0x10 JUMPI PUSH1 0x0 DUP1 REVERT JUMPDEST POP PUSH1 0x4 CALLDATASIZE LT PUSH2 0x93 JUMPI PUSH1 0x0 CALLDATALOAD PUSH1 0xE0 SHR DUP1 PUSH4 0x771602F7 GT PUSH2 0x66 JUMPI DUP1 PUSH4 0x771602F7 EQ PUSH2 0x158 JUMPI DUP1 PUSH4 0x7B271810 EQ PUSH2 0x188 JUMPI DUP1 PUSH4 0x9770CFC5 EQ PUSH2 0x1B8 JUMPI DUP1 PUSH4 0x9EF028B7 EQ PUSH2 0x1E8 JUMPI DUP1 PUSH4 0xB9A03868 EQ PUSH2 0x218 JUMPI PUSH2 0x93 JUMP JUMPDEST DUP1 PUSH4 0x239DE9F4 EQ PUSH2 0x98 JUMPI DUP1 PUSH4 0x2A2E1320 EQ PUSH2 0xC8 JUMPI DUP1 PUSH4 0x4EFFAC52 EQ PUSH2 0xF8 JUMPI DUP1 PUSH4 0x61047FF4 EQ PUSH2 0x128 JUMPI JUMPDEST PUSH1 0x0 DUP1 REVERT JUMPDEST PUSH2 0xB2 PUSH1 0x4 DUP1 CALLDATASIZE SUB DUP2 ADD SWAP1 PUSH2 0xAD SWAP2 SWAP1 PUSH2 0x6E4 JUMP JUMPDEST PUSH2 0x248 JUMP JUMPDEST PUSH1 0x40 MLOAD PUSH2 0xBF SWAP2 SWAP1 PUSH2 0x900 JUMP JUMPDEST PUSH1 0x40 MLOAD DUP1 SWAP2 SUB SWAP1 RETURN JUMPDEST PUSH2 0xE2 PUSH1 0x4 DUP1 CALLDATASIZE SUB DUP2 ADD SWAP1 PUSH2 0xDD SWAP2 SWAP1 PUSH2 0x72D JUMP JUMPDEST PUSH2 0x2A0 JUMP JUMPDEST PUSH1 0x40 MLOAD PUSH2 0xEF SWAP2 SWAP1 PUSH2 0x8A5 JUMP JUMPDEST PUSH1 0x40 MLOAD DUP1 SWAP2 SUB SWAP1 RETURN JUMPDEST PUSH2 0x112 PUSH1 0x4 DUP1 CALLDATASIZE SUB DUP2 ADD SWAP1 PUSH2 0x10D SWAP2 SWAP1 PUSH2 0x6E4 JUMP JUMPDEST PUSH2 0x2B8 JUMP JUMPDEST PUSH1 0x40 MLOAD PUSH2 0x11F SWAP2 SWAP1 PUSH2 0x900 JUMP JUMPDEST PUSH1 0x40 MLOAD DUP1 SWAP2 SUB SWAP1 RETURN JUMPDEST PUSH2 0x142 PUSH1 0x4 DUP1 CALLDATASIZE SUB DUP2 ADD SWAP1 PUSH2 0x13D SWAP2 SWAP1 PUSH2 0x72D JUMP JUMPDEST PUSH2 0x32E JUMP JUMPDEST PUSH1 0x40 MLOAD PUSH2 0x14F SWAP2 SWAP1 PUSH2 0x883 JUMP JUMPDEST PUSH1 0x40 MLOAD DUP1 SWAP2 SUB SWAP1 RETURN JUMPDEST PUSH2 0x172 PUSH1 0x4 DUP1 CALLDATASIZE SUB DUP2 ADD SWAP1 PUSH2 0x16D SWAP2 SWAP1 PUSH2 0x75A JUMP JUMPDEST PUSH2 0x42B JUMP JUMPDEST PUSH1 0x40 MLOAD PUSH2 0x17F SWAP2 SWAP1 PUSH2 0x900 JUMP JUMPDEST PUSH1 0x40 MLOAD DUP1 SWAP2 SUB SWAP1 RETURN JUMPDEST PUSH2 0x1A2 PUSH1 0x4 DUP1 CALLDATASIZE SUB DUP2 ADD SWAP1 PUSH2 0x19D SWAP2 SWAP1 PUSH2 0x6E4 JUMP JUMPDEST PUSH2 0x441 JUMP JUMPDEST PUSH1 0x40 MLOAD PUSH2 0x1AF SWAP2 SWAP1 PUSH2 0x900 JUMP JUMPDEST PUSH1 0x40 MLOAD DUP1 SWAP2 SUB SWAP1 RETURN JUMPDEST PUSH2 0x1D2 PUSH1 0x4 DUP1 CALLDATASIZE SUB DUP2 ADD SWAP1 PUSH2 0x1CD SWAP2 SWAP1 PUSH2 0x72D JUMP JUMPDEST PUSH2 0x55B JUMP JUMPDEST PUSH1 0x40 MLOAD PUSH2 0x1DF SWAP2 SWAP1 PUSH2 0x900 JUMP JUMPDEST PUSH1 0x40 MLOAD DUP1 SWAP2 SUB SWAP1 RETURN JUMPDEST PUSH2 0x202 PUSH1 0x4 DUP1 CALLDATASIZE SUB DUP2 ADD SWAP1 PUSH2 0x1FD SWAP2 SWAP1 PUSH2 0x72D JUMP JUMPDEST PUSH2 0x5BA JUMP JUMPDEST PUSH1 0x40 MLOAD PUSH2 0x20F SWAP2 SWAP1 PUSH2 0x8A5 JUMP JUMPDEST PUSH1 0x40 MLOAD DUP1 SWAP2 SUB SWAP1 RETURN JUMPDEST PUSH2 0x232 PUSH1 0x4 DUP1 CALLDATASIZE SUB DUP2 ADD SWAP1 PUSH2 0x22D SWAP2 SWAP1 PUSH2 0x6E4 JUMP JUMPDEST PUSH2 0x5D9 JUMP JUMPDEST PUSH1 0x40 MLOAD PUSH2 0x23F SWAP2 SWAP1 PUSH2 0x900 JUMP JUMPDEST PUSH1 0x40 MLOAD DUP1 SWAP2 SUB SWAP1 RETURN JUMPDEST PUSH1 0x0 DUP1 PUSH1 0x1 SWAP1 POP PUSH1 0x0 JUMPDEST DUP4 MLOAD DUP2 LT ISZERO PUSH2 0x296 JUMPI DUP4 DUP2 DUP2 MLOAD DUP2 LT PUSH2 0x26E JUMPI PUSH2 0x26D PUSH2 0xBEA JUMP JUMPDEST JUMPDEST PUSH1 0x20 MUL PUSH1 0x20 ADD ADD MLOAD DUP3 PUSH2 0x281 SWAP2 SWAP1 PUSH2 0xA3D JUMP JUMPDEST SWAP2 POP DUP1 DUP1 PUSH2 0x28E SWAP1 PUSH2 0xB12 JUMP JUMPDEST SWAP2 POP POP PUSH2 0x252 JUMP JUMPDEST POP DUP1 SWAP2 POP POP SWAP2 SWAP1 POP JUMP JUMPDEST PUSH1 0x0 DUP1 PUSH1 0x2 DUP4 PUSH2 0x2B0 SWAP2 SWAP1 PUSH2 0xB5B JUMP JUMPDEST EQ SWAP1 POP SWAP2 SWAP1 POP JUMP JUMPDEST PUSH1 0x0 DUP1 DUP3 PUSH1 0x0 DUP2 MLOAD DUP2 LT PUSH2 0x2CF JUMPI PUSH2 0x2CE PUSH2 0xBEA JUMP JUMPDEST JUMPDEST PUSH1 0x20 MUL PUSH1 0x20 ADD ADD MLOAD SWAP1 POP PUSH1 0x0 PUSH1 0x1 SWAP1 POP JUMPDEST DUP4 MLOAD DUP2 LT ISZERO PUSH2 0x324 JUMPI DUP4 DUP2 DUP2 MLOAD DUP2 LT PUSH2 0x2FC JUMPI PUSH2 0x2FB PUSH2 0xBEA JUMP JUMPDEST JUMPDEST PUSH1 0x20 MUL PUSH1 0x20 ADD ADD MLOAD DUP3 PUSH2 0x30F SWAP2 SWAP1 PUSH2 0xA97 JUMP JUMPDEST SWAP2 POP DUP1 DUP1 PUSH2 0x31C SWAP1 PUSH2 0xB12 JUMP JUMPDEST SWAP2 POP POP PUSH2 0x2E0 JUMP JUMPDEST POP DUP1 SWAP2 POP POP SWAP2 SWAP1 POP JUMP JUMPDEST PUSH1 0x60 PUSH1 0x0 DUP3 PUSH8 0xFFFFFFFFFFFFFFFF DUP2 GT ISZERO PUSH2 0x34C JUMPI PUSH2 0x34B PUSH2 0xC19 JUMP JUMPDEST JUMPDEST PUSH1 0x40 MLOAD SWAP1 DUP1 DUP3 MSTORE DUP1 PUSH1 0x20 MUL PUSH1 0x20 ADD DUP3 ADD PUSH1 0x40 MSTORE DUP1 ISZERO PUSH2 0x37A JUMPI DUP2 PUSH1 0x20 ADD PUSH1 0x20 DUP3 MUL DUP1 CALLDATASIZE DUP4 CALLDATACOPY DUP1 DUP3 ADD SWAP2 POP POP SWAP1 POP JUMPDEST POP SWAP1 POP PUSH1 0x0 DUP1 PUSH1 0x1 SWAP1 POP DUP2 DUP4 PUSH1 0x0 DUP2 MLOAD DUP2 LT PUSH2 0x399 JUMPI PUSH2 0x398 PUSH2 0xBEA JUMP JUMPDEST JUMPDEST PUSH1 0x20 MUL PUSH1 0x20 ADD ADD DUP2 DUP2 MSTORE POP POP DUP1 DUP4 PUSH1 0x1 DUP2 MLOAD DUP2 LT PUSH2 0x3BA JUMPI PUSH2 0x3B9 PUSH2 0xBEA JUMP JUMPDEST JUMPDEST PUSH1 0x20 MUL PUSH1 0x20 ADD ADD DUP2 DUP2 MSTORE POP POP PUSH1 0x0 PUSH1 0x2 SWAP1 POP JUMPDEST DUP6 DUP2 LT ISZERO PUSH2 0x41F JUMPI PUSH1 0x0 DUP3 DUP5 PUSH2 0x3E3 SWAP2 SWAP1 PUSH2 0x9B6 JUMP JUMPDEST SWAP1 POP DUP1 DUP6 DUP4 DUP2 MLOAD DUP2 LT PUSH2 0x3F9 JUMPI PUSH2 0x3F8 PUSH2 0xBEA JUMP JUMPDEST JUMPDEST PUSH1 0x20 MUL PUSH1 0x20 ADD ADD DUP2 DUP2 MSTORE POP POP DUP3 SWAP4 POP DUP1 SWAP3 POP POP DUP1 DUP1 PUSH2 0x417 SWAP1 PUSH2 0xB12 JUMP JUMPDEST SWAP2 POP POP PUSH2 0x3CD JUMP JUMPDEST POP DUP3 SWAP4 POP POP POP POP SWAP2 SWAP1 POP JUMP JUMPDEST PUSH1 0x0 DUP2 DUP4 PUSH2 0x439 SWAP2 SWAP1 PUSH2 0x9B6 JUMP JUMPDEST SWAP1 POP SWAP3 SWAP2 POP POP JUMP JUMPDEST PUSH1 0x0 PUSH1 0x2 DUP3 MLOAD LT ISZERO PUSH2 0x488 JUMPI PUSH1 0x40 MLOAD PUSH32 0x8C379A000000000000000000000000000000000000000000000000000000000 DUP2 MSTORE PUSH1 0x4 ADD PUSH2 0x47F SWAP1 PUSH2 0x8E0 JUMP JUMPDEST PUSH1 0x40 MLOAD DUP1 SWAP2 SUB SWAP1 REVERT JUMPDEST PUSH1 0x0 DUP3 PUSH1 0x0 DUP2 MLOAD DUP2 LT PUSH2 0x49E JUMPI PUSH2 0x49D PUSH2 0xBEA JUMP JUMPDEST JUMPDEST PUSH1 0x20 MUL PUSH1 0x20 ADD ADD MLOAD SWAP1 POP PUSH1 0x0 PUSH1 0x1 SWAP1 POP JUMPDEST DUP4 MLOAD DUP2 LT ISZERO PUSH2 0x551 JUMPI PUSH1 0x0 DUP5 DUP3 DUP2 MLOAD DUP2 LT PUSH2 0x4CD JUMPI PUSH2 0x4CC PUSH2 0xBEA JUMP JUMPDEST JUMPDEST PUSH1 0x20 MUL PUSH1 0x20 ADD ADD MLOAD EQ ISZERO PUSH2 0x516 JUMPI PUSH1 0x40 MLOAD PUSH32 0x8C379A000000000000000000000000000000000000000000000000000000000 DUP2 MSTORE PUSH1 0x4 ADD PUSH2 0x50D SWAP1 PUSH2 0x8C0 JUMP JUMPDEST PUSH1 0x40 MLOAD DUP1 SWAP2 SUB SWAP1 REVERT JUMPDEST DUP4 DUP2 DUP2 MLOAD DUP2 LT PUSH2 0x529 JUMPI PUSH2 0x528 PUSH2 0xBEA JUMP JUMPDEST JUMPDEST PUSH1 0x20 MUL PUSH1 0x20 ADD ADD MLOAD DUP3 PUSH2 0x53C SWAP2 SWAP1 PUSH2 0xA0C JUMP JUMPDEST SWAP2 POP DUP1 DUP1 PUSH2 0x549 SWAP1 PUSH2 0xB12 JUMP JUMPDEST SWAP2 POP POP PUSH2 0x4AF JUMP JUMPDEST POP DUP1 SWAP2 POP POP SWAP2 SWAP1 POP JUMP JUMPDEST PUSH1 0x0 DUP1 PUSH2 0x567 DUP4 PUSH2 0x32E JUMP JUMPDEST SWAP1 POP PUSH1 0x0 DUP1 JUMPDEST DUP3 MLOAD DUP2 LT ISZERO PUSH2 0x5AF JUMPI PUSH2 0x59A DUP3 DUP5 DUP4 DUP2 MLOAD DUP2 LT PUSH2 0x58D JUMPI PUSH2 0x58C PUSH2 0xBEA JUMP JUMPDEST JUMPDEST PUSH1 0x20 MUL PUSH1 0x20 ADD ADD MLOAD PUSH2 0x42B JUMP JUMPDEST SWAP2 POP DUP1 DUP1 PUSH2 0x5A7 SWAP1 PUSH2 0xB12 JUMP JUMPDEST SWAP2 POP POP PUSH2 0x56D JUMP JUMPDEST POP DUP1 SWAP3 POP POP POP SWAP2 SWAP1 POP JUMP JUMPDEST PUSH1 0x0 DUP1 PUSH2 0x5C6 DUP4 PUSH2 0x55B JUMP JUMPDEST SWAP1 POP PUSH2 0x5D1 DUP2 PUSH2 0x2A0 JUMP JUMPDEST SWAP2 POP POP SWAP2 SWAP1 POP JUMP JUMPDEST PUSH1 0x0 DUP1 PUSH1 0x0 SWAP1 POP PUSH1 0x0 JUMPDEST DUP4 MLOAD DUP2 LT ISZERO PUSH2 0x627 JUMPI DUP4 DUP2 DUP2 MLOAD DUP2 LT PUSH2 0x5FF JUMPI PUSH2 0x5FE PUSH2 0xBEA JUMP JUMPDEST JUMPDEST PUSH1 0x20 MUL PUSH1 0x20 ADD ADD MLOAD DUP3 PUSH2 0x612 SWAP2 SWAP1 PUSH2 0x9B6 JUMP JUMPDEST SWAP2 POP DUP1 DUP1 PUSH2 0x61F SWAP1 PUSH2 0xB12 JUMP JUMPDEST SWAP2 POP POP PUSH2 0x5E3 JUMP JUMPDEST POP DUP1 SWAP2 POP POP SWAP2 SWAP1 POP JUMP JUMPDEST PUSH1 0x0 PUSH2 0x644 PUSH2 0x63F DUP5 PUSH2 0x940 JUMP JUMPDEST PUSH2 0x91B JUMP JUMPDEST SWAP1 POP DUP1 DUP4 DUP3 MSTORE PUSH1 0x20 DUP3 ADD SWAP1 POP DUP3 DUP6 PUSH1 0x20 DUP7 MUL DUP3 ADD GT ISZERO PUSH2 0x667 JUMPI PUSH2 0x666 PUSH2 0xC4D JUMP JUMPDEST JUMPDEST PUSH1 0x0 JUMPDEST DUP6 DUP2 LT ISZERO PUSH2 0x697 JUMPI DUP2 PUSH2 0x67D DUP9 DUP3 PUSH2 0x6CF JUMP JUMPDEST DUP5 MSTORE PUSH1 0x20 DUP5 ADD SWAP4 POP PUSH1 0x20 DUP4 ADD SWAP3 POP POP PUSH1 0x1 DUP2 ADD SWAP1 POP PUSH2 0x66A JUMP JUMPDEST POP POP POP SWAP4 SWAP3 POP POP POP JUMP JUMPDEST PUSH1 0x0 DUP3 PUSH1 0x1F DUP4 ADD SLT PUSH2 0x6B6 JUMPI PUSH2 0x6B5 PUSH2 0xC48 JUMP JUMPDEST JUMPDEST DUP2 CALLDATALOAD PUSH2 0x6C6 DUP5 DUP3 PUSH1 0x20 DUP7 ADD PUSH2 0x631 JUMP JUMPDEST SWAP2 POP POP SWAP3 SWAP2 POP POP JUMP JUMPDEST PUSH1 0x0 DUP2 CALLDATALOAD SWAP1 POP PUSH2 0x6DE DUP2 PUSH2 0xCBF JUMP JUMPDEST SWAP3 SWAP2 POP POP JUMP JUMPDEST PUSH1 0x0 PUSH1 0x20 DUP3 DUP5 SUB SLT ISZERO PUSH2 0x6FA JUMPI PUSH2 0x6F9 PUSH2 0xC57 JUMP JUMPDEST JUMPDEST PUSH1 0x0 DUP3 ADD CALLDATALOAD PUSH8 0xFFFFFFFFFFFFFFFF DUP2 GT ISZERO PUSH2 0x718 JUMPI PUSH2 0x717 PUSH2 0xC52 JUMP JUMPDEST JUMPDEST PUSH2 0x724 DUP5 DUP3 DUP6 ADD PUSH2 0x6A1 JUMP JUMPDEST SWAP2 POP POP SWAP3 SWAP2 POP POP JUMP JUMPDEST PUSH1 0x0 PUSH1 0x20 DUP3 DUP5 SUB SLT ISZERO PUSH2 0x743 JUMPI PUSH2 0x742 PUSH2 0xC57 JUMP JUMPDEST JUMPDEST PUSH1 0x0 PUSH2 0x751 DUP5 DUP3 DUP6 ADD PUSH2 0x6CF JUMP JUMPDEST SWAP2 POP POP SWAP3 SWAP2 POP POP JUMP JUMPDEST PUSH1 0x0 DUP1 PUSH1 0x40 DUP4 DUP6 SUB SLT ISZERO PUSH2 0x771 JUMPI PUSH2 0x770 PUSH2 0xC57 JUMP JUMPDEST JUMPDEST PUSH1 0x0 PUSH2 0x77F DUP6 DUP3 DUP7 ADD PUSH2 0x6CF JUMP JUMPDEST SWAP3 POP POP PUSH1 0x20 PUSH2 0x790 DUP6 DUP3 DUP7 ADD PUSH2 0x6CF JUMP JUMPDEST SWAP2 POP POP SWAP3 POP SWAP3 SWAP1 POP JUMP JUMPDEST PUSH1 0x0 PUSH2 0x7A6 DUP4 DUP4 PUSH2 0x865 JUMP JUMPDEST PUSH1 0x20 DUP4 ADD SWAP1 POP SWAP3 SWAP2 POP POP JUMP JUMPDEST PUSH1 0x0 PUSH2 0x7BD DUP3 PUSH2 0x97C JUMP JUMPDEST PUSH2 0x7C7 DUP2 DUP6 PUSH2 0x994 JUMP JUMPDEST SWAP4 POP PUSH2 0x7D2 DUP4 PUSH2 0x96C JUMP JUMPDEST DUP1 PUSH1 0x0 JUMPDEST DUP4 DUP2 LT ISZERO PUSH2 0x803 JUMPI DUP2 MLOAD PUSH2 0x7EA DUP9 DUP3 PUSH2 0x79A JUMP JUMPDEST SWAP8 POP PUSH2 0x7F5 DUP4 PUSH2 0x987 JUMP JUMPDEST SWAP3 POP POP PUSH1 0x1 DUP2 ADD SWAP1 POP PUSH2 0x7D6 JUMP JUMPDEST POP DUP6 SWAP4 POP POP POP POP SWAP3 SWAP2 POP POP JUMP JUMPDEST PUSH2 0x819 DUP2 PUSH2 0xACB JUMP JUMPDEST DUP3 MSTORE POP POP JUMP JUMPDEST PUSH1 0x0 PUSH2 0x82C PUSH1 0x15 DUP4 PUSH2 0x9A5 JUMP JUMPDEST SWAP2 POP PUSH2 0x837 DUP3 PUSH2 0xC6D JUMP JUMPDEST PUSH1 0x20 DUP3 ADD SWAP1 POP SWAP2 SWAP1 POP JUMP JUMPDEST PUSH1 0x0 PUSH2 0x84F PUSH1 0x1D DUP4 PUSH2 0x9A5 JUMP JUMPDEST SWAP2 POP PUSH2 0x85A DUP3 PUSH2 0xC96 JUMP JUMPDEST PUSH1 0x20 DUP3 ADD SWAP1 POP SWAP2 SWAP1 POP JUMP JUMPDEST PUSH2 0x86E DUP2 PUSH2 0xAD7 JUMP JUMPDEST DUP3 MSTORE POP POP JUMP JUMPDEST PUSH2 0x87D DUP2 PUSH2 0xAD7 JUMP JUMPDEST DUP3 MSTORE POP POP JUMP JUMPDEST PUSH1 0x0 PUSH1 0x20 DUP3 ADD SWAP1 POP DUP2 DUP2 SUB PUSH1 0x0 DUP4 ADD MSTORE PUSH2 0x89D DUP2 DUP5 PUSH2 0x7B2 JUMP JUMPDEST SWAP1 POP SWAP3 SWAP2 POP POP JUMP JUMPDEST PUSH1 0x0 PUSH1 0x20 DUP3 ADD SWAP1 POP PUSH2 0x8BA PUSH1 0x0 DUP4 ADD DUP5 PUSH2 0x810 JUMP JUMPDEST SWAP3 SWAP2 POP POP JUMP JUMPDEST PUSH1 0x0 PUSH1 0x20 DUP3 ADD SWAP1 POP DUP2 DUP2 SUB PUSH1 0x0 DUP4 ADD MSTORE PUSH2 0x8D9 DUP2 PUSH2 0x81F JUMP JUMPDEST SWAP1 POP SWAP2 SWAP1 POP JUMP JUMPDEST PUSH1 0x0 PUSH1 0x20 DUP3 ADD SWAP1 POP DUP2 DUP2 SUB PUSH1 0x0 DUP4 ADD MSTORE PUSH2 0x8F9 DUP2 PUSH2 0x842 JUMP JUMPDEST SWAP1 POP SWAP2 SWAP1 POP JUMP JUMPDEST PUSH1 0x0 PUSH1 0x20 DUP3 ADD SWAP1 POP PUSH2 0x915 PUSH1 0x0 DUP4 ADD DUP5 PUSH2 0x874 JUMP JUMPDEST SWAP3 SWAP2 POP POP JUMP JUMPDEST PUSH1 0x0 PUSH2 0x925 PUSH2 0x936 JUMP JUMPDEST SWAP1 POP PUSH2 0x931 DUP3 DUP3 PUSH2 0xAE1 JUMP JUMPDEST SWAP2 SWAP1 POP JUMP JUMPDEST PUSH1 0x0 PUSH1 0x40 MLOAD SWAP1 POP SWAP1 JUMP JUMPDEST PUSH1 0x0 PUSH8 0xFFFFFFFFFFFFFFFF DUP3 GT ISZERO PUSH2 0x95B JUMPI PUSH2 0x95A PUSH2 0xC19 JUMP JUMPDEST JUMPDEST PUSH1 0x20 DUP3 MUL SWAP1 POP PUSH1 0x20 DUP2 ADD SWAP1 POP SWAP2 SWAP1 POP JUMP JUMPDEST PUSH1 0x0 DUP2 SWAP1 POP PUSH1 0x20 DUP3 ADD SWAP1 POP SWAP2 SWAP1 POP JUMP JUMPDEST PUSH1 0x0 DUP2 MLOAD SWAP1 POP SWAP2 SWAP1 POP JUMP JUMPDEST PUSH1 0x0 PUSH1 0x20 DUP3 ADD SWAP1 POP SWAP2 SWAP1 POP JUMP JUMPDEST PUSH1 0x0 DUP3 DUP3 MSTORE PUSH1 0x20 DUP3 ADD SWAP1 POP SWAP3 SWAP2 POP POP JUMP JUMPDEST PUSH1 0x0 DUP3 DUP3 MSTORE PUSH1 0x20 DUP3 ADD SWAP1 POP SWAP3 SWAP2 POP POP JUMP JUMPDEST PUSH1 0x0 PUSH2 0x9C1 DUP3 PUSH2 0xAD7 JUMP JUMPDEST SWAP2 POP PUSH2 0x9CC DUP4 PUSH2 0xAD7 JUMP JUMPDEST SWAP3 POP DUP3 PUSH32 0xFFFFFFFFFFFFFFFFFFFFFFFFFFFFFFFFFFFFFFFFFFFFFFFFFFFFFFFFFFFFFFFF SUB DUP3 GT ISZERO PUSH2 0xA01 JUMPI PUSH2 0xA00 PUSH2 0xB8C JUMP JUMPDEST JUMPDEST DUP3 DUP3 ADD SWAP1 POP SWAP3 SWAP2 POP POP JUMP JUMPDEST PUSH1 0x0 PUSH2 0xA17 DUP3 PUSH2 0xAD7 JUMP JUMPDEST SWAP2 POP PUSH2 0xA22 DUP4 PUSH2 0xAD7 JUMP JUMPDEST SWAP3 POP DUP3 PUSH2 0xA32 JUMPI PUSH2 0xA31 PUSH2 0xBBB JUMP JUMPDEST JUMPDEST DUP3 DUP3 DIV SWAP1 POP SWAP3 SWAP2 POP POP JUMP JUMPDEST PUSH1 0x0 PUSH2 0xA48 DUP3 PUSH2 0xAD7 JUMP JUMPDEST SWAP2 POP PUSH2 0xA53 DUP4 PUSH2 0xAD7 JUMP JUMPDEST SWAP3 POP DUP2 PUSH32 0xFFFFFFFFFFFFFFFFFFFFFFFFFFFFFFFFFFFFFFFFFFFFFFFFFFFFFFFFFFFFFFFF DIV DUP4 GT DUP3 ISZERO ISZERO AND ISZERO PUSH2 0xA8C JUMPI PUSH2 0xA8B PUSH2 0xB8C JUMP JUMPDEST JUMPDEST DUP3 DUP3 MUL SWAP1 POP SWAP3 SWAP2 POP POP JUMP JUMPDEST PUSH1 0x0 PUSH2 0xAA2 DUP3 PUSH2 0xAD7 JUMP JUMPDEST SWAP2 POP PUSH2 0xAAD DUP4 PUSH2 0xAD7 JUMP JUMPDEST SWAP3 POP DUP3 DUP3 LT ISZERO PUSH2 0xAC0 JUMPI PUSH2 0xABF PUSH2 0xB8C JUMP JUMPDEST JUMPDEST DUP3 DUP3 SUB SWAP1 POP SWAP3 SWAP2 POP POP JUMP JUMPDEST PUSH1 0x0 DUP2 ISZERO ISZERO SWAP1 POP SWAP2 SWAP1 POP JUMP JUMPDEST PUSH1 0x0 DUP2 SWAP1 POP SWAP2 SWAP1 POP JUMP JUMPDEST PUSH2 0xAEA DUP3 PUSH2 0xC5C JUMP JUMPDEST DUP2 ADD DUP2 DUP2 LT PUSH8 0xFFFFFFFFFFFFFFFF DUP3 GT OR ISZERO PUSH2 0xB09 JUMPI PUSH2 0xB08 PUSH2 0xC19 JUMP JUMPDEST JUMPDEST DUP1 PUSH1 0x40 MSTORE POP POP POP JUMP JUMPDEST PUSH1 0x0 PUSH2 0xB1D DUP3 PUSH2 0xAD7 JUMP JUMPDEST SWAP2 POP PUSH32 0xFFFFFFFFFFFFFFFFFFFFFFFFFFFFFFFFFFFFFFFFFFFFFFFFFFFFFFFFFFFFFFFF DUP3 EQ ISZERO PUSH2 0xB50 JUMPI PUSH2 0xB4F PUSH2 0xB8C JUMP JUMPDEST JUMPDEST PUSH1 0x1 DUP3 ADD SWAP1 POP SWAP2 SWAP1 POP JUMP JUMPDEST PUSH1 0x0 PUSH2 0xB66 DUP3 PUSH2 0xAD7 JUMP JUMPDEST SWAP2 POP PUSH2 0xB71 DUP4 PUSH2 0xAD7 JUMP JUMPDEST SWAP3 POP DUP3 PUSH2 0xB81 JUMPI PUSH2 0xB80 PUSH2 0xBBB JUMP JUMPDEST JUMPDEST DUP3 DUP3 MOD SWAP1 POP SWAP3 SWAP2 POP POP JUMP JUMPDEST PUSH32 0x4E487B7100000000000000000000000000000000000000000000000000000000 PUSH1 0x0 MSTORE PUSH1 0x11 PUSH1 0x4 MSTORE PUSH1 0x24 PUSH1 0x0 REVERT JUMPDEST PUSH32 0x4E487B7100000000000000000000000000000000000000000000000000000000 PUSH1 0x0 MSTORE PUSH1 0x12 PUSH1 0x4 MSTORE PUSH1 0x24 PUSH1 0x0 REVERT JUMPDEST PUSH32 0x4E487B7100000000000000000000000000000000000000000000000000000000 PUSH1 0x0 MSTORE PUSH1 0x32 PUSH1 0x4 MSTORE PUSH1 0x24 PUSH1 0x0 REVERT JUMPDEST PUSH32 0x4E487B7100000000000000000000000000000000000000000000000000000000 PUSH1 0x0 MSTORE PUSH1 0x41 PUSH1 0x4 MSTORE PUSH1 0x24 PUSH1 0x0 REVERT JUMPDEST PUSH1 0x0 DUP1 REVERT JUMPDEST PUSH1 0x0 DUP1 REVERT JUMPDEST PUSH1 0x0 DUP1 REVERT JUMPDEST PUSH1 0x0 DUP1 REVERT JUMPDEST PUSH1 0x0 PUSH1 0x1F NOT PUSH1 0x1F DUP4 ADD AND SWAP1 POP SWAP2 SWAP1 POP JUMP JUMPDEST PUSH32 0x43616E6E6F7420646976696465206279207A65726F0000000000000000000000 PUSH1 0x0 DUP3 ADD MSTORE POP JUMP JUMPDEST PUSH32 0x4174206C656173742074776F206E756D62657273207265717569726564000000 PUSH1 0x0 DUP3 ADD MSTORE POP JUMP JUMPDEST PUSH2 0xCC8 DUP2 PUSH2 0xAD7 JUMP JUMPDEST DUP2 EQ PUSH2 0xCD3 JUMPI PUSH1 0x0 DUP1 REVERT JUMPDEST POP JUMP INVALID LOG2 PUSH5 0x6970667358 0x22 SLT KECCAK256 DELEGATECALL 0xCF 0x27 0xC6 0x4A 0xD7 DUP5 SWAP1 0xBC 0xB0 0xB9 DUP16 SWAP16 PUSH2 0xBC8A 0xE5 SWAP8 0x2F DUP12 0xD1 DUP10 EQ 0x2F 0xF8 MSIZE 0xB3 0xF8 0xF 0xEA 0x28 MSTORE8 PUSH5 0x736F6C6343 STOP ADDMOD MOD STOP CALLER "
		},
		"gasEstimates": {
			"creation": {
				"codeDepositCost": "668000",
				"executionCost": "702",
				"totalCost": "668702"
			},
			"external": {
				"add(uint256,uint256)": "infinite",
				"addAndCheckEvenOdd(uint256)": "infinite",
				"addFibonacci(uint256)": "infinite",
				"addNumbers(uint256[])": "infinite",
				"divideNumbers(uint256[])": "infinite",
				"fibonacci(uint256)": "infinite",
				"isEven(uint256)": "infinite",
				"multiply(uint256[])": "infinite",
				"subtractNumbers(uint256[])": "infinite"
			}
		},
		"methodIdentifiers": {
			"add(uint256,uint256)": "771602f7",
			"addAndCheckEvenOdd(uint256)": "9ef028b7",
			"addFibonacci(uint256)": "9770cfc5",
			"addNumbers(uint256[])": "b9a03868",
			"divideNumbers(uint256[])": "7b271810",
			"fibonacci(uint256)": "61047ff4",
			"isEven(uint256)": "2a2e1320",
			"multiply(uint256[])": "239de9f4",
			"subtractNumbers(uint256[])": "4effac52"
		}
	},
	"abi": [
		{
			"inputs": [
				{
					"internalType": "uint256",
					"name": "a",
					"type": "uint256"
				},
				{
					"internalType": "uint256",
					"name": "b",
					"type": "uint256"
				}
			],
			"name": "add",
			"outputs": [
				{
					"internalType": "uint256",
					"name": "",
					"type": "uint256"
				}
			],
			"stateMutability": "pure",
			"type": "function"
		},
		{
			"inputs": [
				{
					"internalType": "uint256",
					"name": "n",
					"type": "uint256"
				}
			],
			"name": "addAndCheckEvenOdd",
			"outputs": [
				{
					"internalType": "bool",
					"name": "",
					"type": "bool"
				}
			],
			"stateMutability": "pure",
			"type": "function"
		},
		{
			"inputs": [
				{
					"internalType": "uint256",
					"name": "n",
					"type": "uint256"
				}
			],
			"name": "addFibonacci",
			"outputs": [
				{
					"internalType": "uint256",
					"name": "",
					"type": "uint256"
				}
			],
			"stateMutability": "pure",
			"type": "function"
		},
		{
			"inputs": [
				{
					"internalType": "uint256[]",
					"name": "numbers",
					"type": "uint256[]"
				}
			],
			"name": "addNumbers",
			"outputs": [
				{
					"internalType": "uint256",
					"name": "",
					"type": "uint256"
				}
			],
			"stateMutability": "pure",
			"type": "function"
		},
		{
			"inputs": [
				{
					"internalType": "uint256[]",
					"name": "nums",
					"type": "uint256[]"
				}
			],
			"name": "divideNumbers",
			"outputs": [
				{
					"internalType": "uint256",
					"name": "",
					"type": "uint256"
				}
			],
			"stateMutability": "pure",
			"type": "function"
		},
		{
			"inputs": [
				{
					"internalType": "uint256",
					"name": "n",
					"type": "uint256"
				}
			],
			"name": "fibonacci",
			"outputs": [
				{
					"internalType": "uint256[]",
					"name": "",
					"type": "uint256[]"
				}
			],
			"stateMutability": "pure",
			"type": "function"
		},
		{
			"inputs": [
				{
					"internalType": "uint256",
					"name": "num",
					"type": "uint256"
				}
			],
			"name": "isEven",
			"outputs": [
				{
					"internalType": "bool",
					"name": "",
					"type": "bool"
				}
			],
			"stateMutability": "pure",
			"type": "function"
		},
		{
			"inputs": [
				{
					"internalType": "uint256[]",
					"name": "numbers",
					"type": "uint256[]"
				}
			],
			"name": "multiply",
			"outputs": [
				{
					"internalType": "uint256",
					"name": "",
					"type": "uint256"
				}
			],
			"stateMutability": "pure",
			"type": "function"
		},
		{
			"inputs": [
				{
					"internalType": "uint256[]",
					"name": "nums",
					"type": "uint256[]"
				}
			],
			"name": "subtractNumbers",
			"outputs": [
				{
					"internalType": "uint256",
					"name": "",
					"type": "uint256"
				}
			],
			"stateMutability": "pure",
			"type": "function"
		}
	]
}